{
	"address": "0xC6bdC0fe18C17ed6bCa60975A2ff8A12D79cdDa9",
	"abi": [
		{
			"inputs": [
				{
					"internalType": "address",
					"name": "owner",
					"type": "address"
				}
			],
			"stateMutability": "nonpayable",
			"type": "constructor"
		},
		{
			"anonymous": false,
			"inputs": [
				{
					"indexed": true,
					"internalType": "address",
					"name": "account",
					"type": "address"
				},
				{
					"indexed": true,
					"internalType": "address",
					"name": "operator",
					"type": "address"
				},
				{
					"indexed": false,
					"internalType": "bool",
					"name": "approved",
					"type": "bool"
				}
			],
			"name": "ApprovalForAll",
			"type": "event"
		},
		{
			"anonymous": false,
			"inputs": [
				{
					"indexed": true,
					"internalType": "address",
					"name": "previousOwner",
					"type": "address"
				},
				{
					"indexed": true,
					"internalType": "address",
					"name": "newOwner",
					"type": "address"
				}
			],
			"name": "OwnershipTransferred",
			"type": "event"
		},
		{
			"anonymous": false,
			"inputs": [
				{
					"indexed": false,
					"internalType": "string",
					"name": "_value",
					"type": "string"
				},
				{
					"indexed": true,
					"internalType": "uint256",
					"name": "_id",
					"type": "uint256"
				}
			],
			"name": "PermanentURI",
			"type": "event"
		},
		{
			"anonymous": false,
			"inputs": [
				{
					"indexed": true,
					"internalType": "address",
					"name": "operator",
					"type": "address"
				},
				{
					"indexed": true,
					"internalType": "address",
					"name": "from",
					"type": "address"
				},
				{
					"indexed": true,
					"internalType": "address",
					"name": "to",
					"type": "address"
				},
				{
					"indexed": false,
					"internalType": "uint256[]",
					"name": "ids",
					"type": "uint256[]"
				},
				{
					"indexed": false,
					"internalType": "uint256[]",
					"name": "values",
					"type": "uint256[]"
				}
			],
			"name": "TransferBatch",
			"type": "event"
		},
		{
			"anonymous": false,
			"inputs": [
				{
					"indexed": true,
					"internalType": "address",
					"name": "operator",
					"type": "address"
				},
				{
					"indexed": true,
					"internalType": "address",
					"name": "from",
					"type": "address"
				},
				{
					"indexed": true,
					"internalType": "address",
					"name": "to",
					"type": "address"
				},
				{
					"indexed": false,
					"internalType": "uint256",
					"name": "id",
					"type": "uint256"
				},
				{
					"indexed": false,
					"internalType": "uint256",
					"name": "value",
					"type": "uint256"
				}
			],
			"name": "TransferSingle",
			"type": "event"
		},
		{
			"anonymous": false,
			"inputs": [
				{
					"indexed": false,
					"internalType": "string",
					"name": "value",
					"type": "string"
				},
				{
					"indexed": true,
					"internalType": "uint256",
					"name": "id",
					"type": "uint256"
				}
			],
			"name": "URI",
			"type": "event"
		},
		{
			"inputs": [
				{
					"internalType": "address",
					"name": "account",
					"type": "address"
				},
				{
					"internalType": "uint256",
					"name": "id",
					"type": "uint256"
				}
			],
			"name": "balanceOf",
			"outputs": [
				{
					"internalType": "uint256",
					"name": "",
					"type": "uint256"
				}
			],
			"stateMutability": "view",
			"type": "function"
		},
		{
			"inputs": [
				{
					"internalType": "address[]",
					"name": "accounts",
					"type": "address[]"
				},
				{
					"internalType": "uint256[]",
					"name": "ids",
					"type": "uint256[]"
				}
			],
			"name": "balanceOfBatch",
			"outputs": [
				{
					"internalType": "uint256[]",
					"name": "",
					"type": "uint256[]"
				}
			],
			"stateMutability": "view",
			"type": "function"
		},
		{
			"inputs": [
				{
					"internalType": "uint256",
					"name": "id",
					"type": "uint256"
				}
			],
			"name": "exists",
			"outputs": [
				{
					"internalType": "bool",
					"name": "",
					"type": "bool"
				}
			],
			"stateMutability": "view",
			"type": "function"
		},
		{
			"inputs": [
				{
					"internalType": "address",
					"name": "account",
					"type": "address"
				},
				{
					"internalType": "address",
					"name": "operator",
					"type": "address"
				}
			],
			"name": "isApprovedForAll",
			"outputs": [
				{
					"internalType": "bool",
					"name": "",
					"type": "bool"
				}
			],
			"stateMutability": "view",
			"type": "function"
		},
		{
			"inputs": [
				{
					"internalType": "uint256",
					"name": "",
					"type": "uint256"
				}
			],
			"name": "meta",
			"outputs": [
				{
					"internalType": "bool",
					"name": "minted",
					"type": "bool"
				},
				{
					"internalType": "string",
					"name": "uri",
					"type": "string"
				}
			],
			"stateMutability": "view",
			"type": "function"
		},
		{
			"inputs": [
				{
					"internalType": "address",
					"name": "to",
					"type": "address"
				},
				{
					"internalType": "uint256",
					"name": "tokenId",
					"type": "uint256"
				},
				{
					"internalType": "uint256",
					"name": "amount",
					"type": "uint256"
				},
				{
					"internalType": "string",
					"name": "metaUri",
					"type": "string"
				},
				{
					"internalType": "bytes",
					"name": "data",
					"type": "bytes"
				}
			],
			"name": "mint",
			"outputs": [],
			"stateMutability": "nonpayable",
			"type": "function"
		},
		{
			"inputs": [],
			"name": "name",
			"outputs": [
				{
					"internalType": "string",
					"name": "",
					"type": "string"
				}
			],
			"stateMutability": "view",
			"type": "function"
		},
		{
			"inputs": [],
			"name": "owner",
			"outputs": [
				{
					"internalType": "address",
					"name": "",
					"type": "address"
				}
			],
			"stateMutability": "view",
			"type": "function"
		},
		{
			"inputs": [],
			"name": "renounceOwnership",
			"outputs": [],
			"stateMutability": "nonpayable",
			"type": "function"
		},
		{
			"inputs": [
				{
					"internalType": "address",
					"name": "from",
					"type": "address"
				},
				{
					"internalType": "address",
					"name": "to",
					"type": "address"
				},
				{
					"internalType": "uint256[]",
					"name": "ids",
					"type": "uint256[]"
				},
				{
					"internalType": "uint256[]",
					"name": "amounts",
					"type": "uint256[]"
				},
				{
					"internalType": "bytes",
					"name": "data",
					"type": "bytes"
				}
			],
			"name": "safeBatchTransferFrom",
			"outputs": [],
			"stateMutability": "nonpayable",
			"type": "function"
		},
		{
			"inputs": [
				{
					"internalType": "address",
					"name": "from",
					"type": "address"
				},
				{
					"internalType": "address",
					"name": "to",
					"type": "address"
				},
				{
					"internalType": "uint256",
					"name": "id",
					"type": "uint256"
				},
				{
					"internalType": "uint256",
					"name": "amount",
					"type": "uint256"
				},
				{
					"internalType": "bytes",
					"name": "data",
					"type": "bytes"
				}
			],
			"name": "safeTransferFrom",
			"outputs": [],
			"stateMutability": "nonpayable",
			"type": "function"
		},
		{
			"inputs": [
				{
					"internalType": "address",
					"name": "operator",
					"type": "address"
				},
				{
					"internalType": "bool",
					"name": "approved",
					"type": "bool"
				}
			],
			"name": "setApprovalForAll",
			"outputs": [],
			"stateMutability": "nonpayable",
			"type": "function"
		},
		{
			"inputs": [
				{
					"internalType": "uint256",
					"name": "tokenId",
					"type": "uint256"
				},
				{
					"internalType": "string",
					"name": "uri_",
					"type": "string"
				}
			],
			"name": "setTokenUri",
			"outputs": [],
			"stateMutability": "nonpayable",
			"type": "function"
		},
		{
			"inputs": [
				{
					"internalType": "bytes4",
					"name": "interfaceId",
					"type": "bytes4"
				}
			],
			"name": "supportsInterface",
			"outputs": [
				{
					"internalType": "bool",
					"name": "",
					"type": "bool"
				}
			],
			"stateMutability": "view",
			"type": "function"
		},
		{
			"inputs": [
				{
					"internalType": "uint256",
					"name": "id",
					"type": "uint256"
				}
			],
			"name": "totalSupply",
			"outputs": [
				{
					"internalType": "uint256",
					"name": "",
					"type": "uint256"
				}
			],
			"stateMutability": "view",
			"type": "function"
		},
		{
			"inputs": [
				{
					"internalType": "address",
					"name": "newOwner",
					"type": "address"
				}
			],
			"name": "transferOwnership",
			"outputs": [],
			"stateMutability": "nonpayable",
			"type": "function"
		},
		{
			"inputs": [
				{
					"internalType": "uint256",
					"name": "tokenId",
					"type": "uint256"
				}
			],
			"name": "uri",
			"outputs": [
				{
					"internalType": "string",
					"name": "",
					"type": "string"
				}
			],
			"stateMutability": "view",
			"type": "function"
		}
	],
	"transactionHash": "0xe3affe8fe39ca1764001f72c2c9e2ad47d285d42e433c35081d6545f38d5f1ce",
	"args": [
		"0xa995AE28b9cFf206C3971D1887cc934FC48e3a0F"
	],
	"bytecode": "0x60c060405260096080819052680d115591549310539160ba1b60a09081526200002c9160059190620001a2565b503480156200003a57600080fd5b5060405162002253380380620022538339810160408190526200005d9162000248565b60408051602081019091526000815262000077816200009e565b506200008c62000086620000b7565b620000bb565b62000097816200010d565b5062000330565b8051620000b3906002906020840190620001a2565b5050565b3390565b600480546001600160a01b038381166001600160a01b0319831681179093556040519116919082907f8be0079c531659141344cd1fd0a4f28419497f9722a3daafe3b4186f6b6457e090600090a35050565b62000117620000b7565b6001600160a01b03166200012a62000193565b6001600160a01b0316146200015c5760405162461bcd60e51b81526004016200015390620002be565b60405180910390fd5b6001600160a01b038116620001855760405162461bcd60e51b8152600401620001539062000278565b6200019081620000bb565b50565b6004546001600160a01b031690565b828054620001b090620002f3565b90600052602060002090601f016020900481019282620001d457600085556200021f565b82601f10620001ef57805160ff19168380011785556200021f565b828001600101855582156200021f579182015b828111156200021f57825182559160200191906001019062000202565b506200022d92915062000231565b5090565b5b808211156200022d576000815560010162000232565b6000602082840312156200025a578081fd5b81516001600160a01b038116811462000271578182fd5b9392505050565b60208082526026908201527f4f776e61626c653a206e6577206f776e657220697320746865207a65726f206160408201526564647265737360d01b606082015260800190565b6020808252818101527f4f776e61626c653a2063616c6c6572206973206e6f7420746865206f776e6572604082015260600190565b6002810460018216806200030857607f821691505b602082108114156200032a57634e487b7160e01b600052602260045260246000fd5b50919050565b611f1380620003406000396000f3fe608060405234801561001057600080fd5b506004361061010a5760003560e01c8063715018a6116100a2578063bd85b03911610071578063bd85b0391461021e578063cd5cfdaf14610231578063e985e9c514610252578063f242432a14610265578063f2fde38b146102785761010a565b8063715018a6146101db5780638da5cb5b146101e3578063a22cb465146101f8578063a4b645eb1461020b5761010a565b80632eb2c2d6116100de5780632eb2c2d6146101805780634e1273f4146101955780634f558e79146101b557806357f7789e146101c85761010a565b8062fdd58e1461010f57806301ffc9a71461013857806306fdde03146101585780630e89341c1461016d575b600080fd5b61012261011d3660046114d6565b61028b565b60405161012f9190611d1d565b60405180910390f35b61014b610146366004611671565b6102e2565b60405161012f9190611879565b61016061032a565b60405161012f91906118a7565b61016061017b3660046116a9565b6103b8565b61019361018e366004611393565b610480565b005b6101a86101a33660046115b3565b6104de565b60405161012f9190611838565b61014b6101c33660046116a9565b6105fe565b6101936101d63660046116c1565b610611565b6101936106cc565b6101eb610717565b60405161012f9190611781565b61019361020636600461149c565b610727565b6101936102193660046114ff565b6107f5565b61012261022c3660046116a9565b610932565b61024461023f3660046116a9565b610944565b60405161012f929190611884565b61014b610260366004611361565b6109ed565b610193610273366004611439565b610a1b565b610193610286366004611340565b610a72565b60006001600160a01b0383166102bc5760405162461bcd60e51b81526004016102b3906119a1565b60405180910390fd5b506000908152602081815260408083206001600160a01b03949094168352929052205490565b60006001600160e01b03198216636cdb3d1360e11b148061031357506001600160e01b031982166303a24d0760e21b145b80610322575061032282610ae3565b90505b919050565b6005805461033790611d9a565b80601f016020809104026020016040519081016040528092919081815260200182805461036390611d9a565b80156103b05780601f10610385576101008083540402835291602001916103b0565b820191906000526020600020905b81548152906001019060200180831161039357829003601f168201915b505050505081565b60606103c3826105fe565b6103df5760405162461bcd60e51b81526004016102b390611956565b600082815260066020526040902060010180546103fb90611d9a565b80601f016020809104026020016040519081016040528092919081815260200182805461042790611d9a565b80156104745780601f1061044957610100808354040283529160200191610474565b820191906000526020600020905b81548152906001019060200180831161045757829003601f168201915b50505050509050919050565b610488610afc565b6001600160a01b0316856001600160a01b031614806104ae57506104ae85610260610afc565b6104ca5760405162461bcd60e51b81526004016102b390611ac0565b6104d78585858585610b00565b5050505050565b606081518351146105015760405162461bcd60e51b81526004016102b390611c4b565b6000835167ffffffffffffffff81111561052b57634e487b7160e01b600052604160045260246000fd5b604051908082528060200260200182016040528015610554578160200160208202803683370190505b50905060005b84518110156105f6576105bb85828151811061058657634e487b7160e01b600052603260045260246000fd5b60200260200101518583815181106105ae57634e487b7160e01b600052603260045260246000fd5b602002602001015161028b565b8282815181106105db57634e487b7160e01b600052603260045260246000fd5b60209081029190910101526105ef81611dd5565b905061055a565b509392505050565b60008061060a83610932565b1192915050565b610619610afc565b6001600160a01b031661062a610717565b6001600160a01b0316146106505760405162461bcd60e51b81526004016102b390611b9d565b6000828152600660209081526040918290205491516106739260ff169101611879565b604051602081830303815290604052516000146106a25760405162461bcd60e51b81526004016102b390611bd2565b600082815260066020908152604090912082516106c7926001909201918401906111b9565b505050565b6106d4610afc565b6001600160a01b03166106e5610717565b6001600160a01b03161461070b5760405162461bcd60e51b81526004016102b390611b9d565b6107156000610cd1565b565b6004546001600160a01b03165b90565b816001600160a01b0316610739610afc565b6001600160a01b031614156107605760405162461bcd60e51b81526004016102b390611c02565b806001600061076d610afc565b6001600160a01b03908116825260208083019390935260409182016000908120918716808252919093529120805460ff1916921515929092179091556107b1610afc565b6001600160a01b03167f17307eab39ab6107e8899845ad3d59bd9653f200f220920489ca2b5937696c31836040516107e99190611879565b60405180910390a35050565b6107fd610afc565b6001600160a01b031661080e610717565b6001600160a01b0316146108345760405162461bcd60e51b81526004016102b390611b9d565b60008581526006602052604090205460ff16156108635760405162461bcd60e51b81526004016102b390611b12565b6108a586868685858080601f016020809104026020016040519081016040528093929190818152602001838380828437600092019190915250610d2392505050565b6040805180820182526001808252602080830187815260008a815260068352949094208351815460ff1916901515178155935180519394936108ee9385019291909101906111b9565b50905050847fa109ba539900bf1b633f956d63c96fc89b814c7287f7aa50a9216d0b556572078460405161092291906118a7565b60405180910390a2505050505050565b60009081526003602052604090205490565b6006602052600090815260409020805460018201805460ff909216929161096a90611d9a565b80601f016020809104026020016040519081016040528092919081815260200182805461099690611d9a565b80156109e35780601f106109b8576101008083540402835291602001916109e3565b820191906000526020600020905b8154815290600101906020018083116109c657829003601f168201915b5050505050905082565b6001600160a01b03918216600090815260016020908152604080832093909416825291909152205460ff1690565b610a23610afc565b6001600160a01b0316856001600160a01b03161480610a495750610a4985610260610afc565b610a655760405162461bcd60e51b81526004016102b390611a32565b6104d78585858585610d58565b610a7a610afc565b6001600160a01b0316610a8b610717565b6001600160a01b031614610ab15760405162461bcd60e51b81526004016102b390611b9d565b6001600160a01b038116610ad75760405162461bcd60e51b81526004016102b3906119ec565b610ae081610cd1565b50565b6001600160e01b031981166301ffc9a760e01b14919050565b3390565b8151835114610b215760405162461bcd60e51b81526004016102b390611c94565b6001600160a01b038416610b475760405162461bcd60e51b81526004016102b390611a7b565b6000610b51610afc565b9050610b61818787878787610cc9565b60005b8451811015610c63576000858281518110610b8f57634e487b7160e01b600052603260045260246000fd5b602002602001015190506000858381518110610bbb57634e487b7160e01b600052603260045260246000fd5b602090810291909101810151600084815280835260408082206001600160a01b038e168352909352919091205490915081811015610c0b5760405162461bcd60e51b81526004016102b390611b53565b6000838152602081815260408083206001600160a01b038e8116855292528083208585039055908b16825281208054849290610c48908490611d82565b9250508190555050505080610c5c90611dd5565b9050610b64565b50846001600160a01b0316866001600160a01b0316826001600160a01b03167f4a39dc06d4c0dbc64b70af90fd698a233a518aa5d07e595d983b8c0526c8f7fb8787604051610cb392919061184b565b60405180910390a4610cc9818787878787610e9b565b505050505050565b600480546001600160a01b038381166001600160a01b0319831681179093556040519116919082907f8be0079c531659141344cd1fd0a4f28419497f9722a3daafe3b4186f6b6457e090600090a35050565b610d2f84848484610fa9565b60008381526003602052604081208054849290610d4d908490611d82565b909155505050505050565b6001600160a01b038416610d7e5760405162461bcd60e51b81526004016102b390611a7b565b6000610d88610afc565b9050610da8818787610d9988611089565b610da288611089565b87610cc9565b6000848152602081815260408083206001600160a01b038a16845290915290205483811015610de95760405162461bcd60e51b81526004016102b390611b53565b6000858152602081815260408083206001600160a01b038b8116855292528083208785039055908816825281208054869290610e26908490611d82565b92505081905550856001600160a01b0316876001600160a01b0316836001600160a01b03167fc3d58168c5ae7397731d063d5bbf3d657854427343f4c083240f7aacaa2d0f628888604051610e7c929190611d26565b60405180910390a4610e928288888888886110e2565b50505050505050565b610ead846001600160a01b03166111b3565b15610cc95760405163bc197c8160e01b81526001600160a01b0385169063bc197c8190610ee69089908990889088908890600401611795565b602060405180830381600087803b158015610f0057600080fd5b505af1925050508015610f30575060408051601f3d908101601f19168201909252610f2d9181019061168d565b60015b610f7957610f3c611e22565b80610f475750610f61565b8060405162461bcd60e51b81526004016102b391906118a7565b60405162461bcd60e51b81526004016102b3906118ba565b6001600160e01b0319811663bc197c8160e01b14610e925760405162461bcd60e51b81526004016102b39061190e565b6001600160a01b038416610fcf5760405162461bcd60e51b81526004016102b390611cdc565b6000610fd9610afc565b9050610feb81600087610d9988611089565b6000848152602081815260408083206001600160a01b03891684529091528120805485929061101b908490611d82565b92505081905550846001600160a01b031660006001600160a01b0316826001600160a01b03167fc3d58168c5ae7397731d063d5bbf3d657854427343f4c083240f7aacaa2d0f628787604051611072929190611d26565b60405180910390a46104d7816000878787876110e2565b604080516001808252818301909252606091600091906020808301908036833701905050905082816000815181106110d157634e487b7160e01b600052603260045260246000fd5b602090810291909101015292915050565b6110f4846001600160a01b03166111b3565b15610cc95760405163f23a6e6160e01b81526001600160a01b0385169063f23a6e619061112d90899089908890889088906004016117f3565b602060405180830381600087803b15801561114757600080fd5b505af1925050508015611177575060408051601f3d908101601f191682019092526111749181019061168d565b60015b61118357610f3c611e22565b6001600160e01b0319811663f23a6e6160e01b14610e925760405162461bcd60e51b81526004016102b39061190e565b3b151590565b8280546111c590611d9a565b90600052602060002090601f0160209004810192826111e7576000855561122d565b82601f1061120057805160ff191683800117855561122d565b8280016001018555821561122d579182015b8281111561122d578251825591602001919060010190611212565b5061123992915061123d565b5090565b5b80821115611239576000815560010161123e565b80356001600160a01b038116811461032557600080fd5b600082601f830112611279578081fd5b8135602061128e61128983611d5e565b611d34565b82815281810190858301838502870184018810156112aa578586fd5b855b858110156112c8578135845292840192908401906001016112ac565b5090979650505050505050565b600082601f8301126112e5578081fd5b813567ffffffffffffffff8111156112ff576112ff611e06565b611312601f8201601f1916602001611d34565b818152846020838601011115611326578283fd5b816020850160208301379081016020019190915292915050565b600060208284031215611351578081fd5b61135a82611252565b9392505050565b60008060408385031215611373578081fd5b61137c83611252565b915061138a60208401611252565b90509250929050565b600080600080600060a086880312156113aa578081fd5b6113b386611252565b94506113c160208701611252565b9350604086013567ffffffffffffffff808211156113dd578283fd5b6113e989838a01611269565b945060608801359150808211156113fe578283fd5b61140a89838a01611269565b9350608088013591508082111561141f578283fd5b5061142c888289016112d5565b9150509295509295909350565b600080600080600060a08688031215611450578081fd5b61145986611252565b945061146760208701611252565b93506040860135925060608601359150608086013567ffffffffffffffff811115611490578182fd5b61142c888289016112d5565b600080604083850312156114ae578182fd5b6114b783611252565b9150602083013580151581146114cb578182fd5b809150509250929050565b600080604083850312156114e8578182fd5b6114f183611252565b946020939093013593505050565b60008060008060008060a08789031215611517578081fd5b61152087611252565b95506020870135945060408701359350606087013567ffffffffffffffff8082111561154a578283fd5b6115568a838b016112d5565b9450608089013591508082111561156b578283fd5b818901915089601f83011261157e578283fd5b81358181111561158c578384fd5b8a602082850101111561159d578384fd5b6020830194508093505050509295509295509295565b600080604083850312156115c5578182fd5b823567ffffffffffffffff808211156115dc578384fd5b818501915085601f8301126115ef578384fd5b813560206115ff61128983611d5e565b82815281810190858301838502870184018b101561161b578889fd5b8896505b848710156116445761163081611252565b83526001969096019591830191830161161f565b509650508601359250508082111561165a578283fd5b5061166785828601611269565b9150509250929050565b600060208284031215611682578081fd5b813561135a81611ec7565b60006020828403121561169e578081fd5b815161135a81611ec7565b6000602082840312156116ba578081fd5b5035919050565b600080604083850312156116d3578182fd5b82359150602083013567ffffffffffffffff8111156116f0578182fd5b611667858286016112d5565b6000815180845260208085019450808401835b8381101561172b5781518752958201959082019060010161170f565b509495945050505050565b60008151808452815b8181101561175b5760208185018101518683018201520161173f565b8181111561176c5782602083870101525b50601f01601f19169290920160200192915050565b6001600160a01b0391909116815260200190565b6001600160a01b0386811682528516602082015260a0604082018190526000906117c1908301866116fc565b82810360608401526117d381866116fc565b905082810360808401526117e78185611736565b98975050505050505050565b6001600160a01b03868116825285166020820152604081018490526060810183905260a06080820181905260009061182d90830184611736565b979650505050505050565b60006020825261135a60208301846116fc565b60006040825261185e60408301856116fc565b828103602084015261187081856116fc565b95945050505050565b901515815260200190565b600083151582526040602083015261189f6040830184611736565b949350505050565b60006020825261135a6020830184611736565b60208082526034908201527f455243313135353a207472616e7366657220746f206e6f6e20455243313135356040820152732932b1b2b4bb32b91034b6b83632b6b2b73a32b960611b606082015260800190565b60208082526028908201527f455243313135353a204552433131353552656365697665722072656a656374656040820152676420746f6b656e7360c01b606082015260800190565b6020808252602b908201527f5445766572313135353a2055524920717565727920666f72206e6f6e6578697360408201526a3a32b73a103a37b5b2b71760a91b606082015260800190565b6020808252602b908201527f455243313135353a2062616c616e636520717565727920666f7220746865207a60408201526a65726f206164647265737360a81b606082015260800190565b60208082526026908201527f4f776e61626c653a206e6577206f776e657220697320746865207a65726f206160408201526564647265737360d01b606082015260800190565b60208082526029908201527f455243313135353a2063616c6c6572206973206e6f74206f776e6572206e6f7260408201526808185c1c1c9bdd995960ba1b606082015260800190565b60208082526025908201527f455243313135353a207472616e7366657220746f20746865207a65726f206164604082015264647265737360d81b606082015260800190565b60208082526032908201527f455243313135353a207472616e736665722063616c6c6572206973206e6f74206040820152711bdddb995c881b9bdc88185c1c1c9bdd995960721b606082015260800190565b60208082526021908201527f5445766572313135353a20746f6b656e20686173206265656e206d696e7465646040820152601760f91b606082015260800190565b6020808252602a908201527f455243313135353a20696e73756666696369656e742062616c616e636520666f60408201526939103a3930b739b332b960b11b606082015260800190565b6020808252818101527f4f776e61626c653a2063616c6c6572206973206e6f7420746865206f776e6572604082015260600190565b6020808252601690820152752a22bb32b918989a9a9d103ab9349032bc39b4ba399760511b604082015260600190565b60208082526029908201527f455243313135353a2073657474696e6720617070726f76616c20737461747573604082015268103337b91039b2b63360b91b606082015260800190565b60208082526029908201527f455243313135353a206163636f756e747320616e6420696473206c656e677468604082015268040dad2e6dac2e8c6d60bb1b606082015260800190565b60208082526028908201527f455243313135353a2069647320616e6420616d6f756e7473206c656e677468206040820152670dad2e6dac2e8c6d60c31b606082015260800190565b60208082526021908201527f455243313135353a206d696e7420746f20746865207a65726f206164647265736040820152607360f81b606082015260800190565b90815260200190565b918252602082015260400190565b60405181810167ffffffffffffffff81118282101715611d5657611d56611e06565b604052919050565b600067ffffffffffffffff821115611d7857611d78611e06565b5060209081020190565b60008219821115611d9557611d95611df0565b500190565b600281046001821680611dae57607f821691505b60208210811415611dcf57634e487b7160e01b600052602260045260246000fd5b50919050565b6000600019821415611de957611de9611df0565b5060010190565b634e487b7160e01b600052601160045260246000fd5b634e487b7160e01b600052604160045260246000fd5b60e01c90565b600060443d1015611e3257610724565b600481823e6308c379a0611e468251611e1c565b14611e5057610724565b6040513d600319016004823e80513d67ffffffffffffffff8160248401118184111715611e805750505050610724565b82840192508251915080821115611e9a5750505050610724565b503d83016020828401011115611eb257505050610724565b601f01601f1916810160200160405291505090565b6001600160e01b031981168114610ae057600080fdfea2646970667358221220a0e1d81bfbe0e413216c36b50f4e9c0831c392956945e287756fefe6cdfebf1a64736f6c63430008000033"
}