{
  "address": "0xf680d03639389c2510C03e38fc6bF768f7F66047",
  "abi": [
    {
      "inputs": [
        {
          "internalType": "address",
          "name": "owner_",
          "type": "address"
        }
      ],
      "stateMutability": "nonpayable",
      "type": "constructor"
    },
    {
      "anonymous": false,
      "inputs": [
        {
          "indexed": true,
          "internalType": "bytes2",
          "name": "gId_",
          "type": "bytes2"
        },
        {
          "indexed": true,
          "internalType": "bytes2",
          "name": "serviceId_",
          "type": "bytes2"
        },
        {
          "indexed": true,
          "internalType": "bytes28",
          "name": "uuid",
          "type": "bytes28"
        },
        {
          "components": [
            {
              "internalType": "address",
              "name": "to",
              "type": "address"
            },
            {
              "internalType": "contract IERC20",
              "name": "token",
              "type": "address"
            },
            {
              "internalType": "uint256",
              "name": "level",
              "type": "uint256"
            },
            {
              "internalType": "uint256",
              "name": "boughtTime",
              "type": "uint256"
            },
            {
              "internalType": "uint256",
              "name": "expiration",
              "type": "uint256"
            },
            {
              "internalType": "uint256",
              "name": "expectedCost",
              "type": "uint256"
            },
            {
              "internalType": "uint256",
              "name": "realCost",
              "type": "uint256"
            },
            {
              "components": [
                {
                  "internalType": "uint256",
                  "name": "bandwidth",
                  "type": "uint256"
                },
                {
                  "internalType": "uint256",
                  "name": "storageAmount",
                  "type": "uint256"
                },
                {
                  "internalType": "uint256",
                  "name": "buildingTime",
                  "type": "uint256"
                },
                {
                  "internalType": "uint256",
                  "name": "pricePerMonth",
                  "type": "uint256"
                },
                {
                  "internalType": "bool",
                  "name": "isValid",
                  "type": "bool"
                },
                {
                  "internalType": "string",
                  "name": "name",
                  "type": "string"
                }
              ],
              "internalType": "struct HostingCombos.Combo",
              "name": "combo",
              "type": "tuple"
            }
          ],
          "indexed": false,
          "internalType": "struct HostingExpiration.Receipt",
          "name": "receipt",
          "type": "tuple"
        }
      ],
      "name": "Buy",
      "type": "event"
    },
    {
      "anonymous": false,
      "inputs": [
        {
          "indexed": true,
          "internalType": "bytes2",
          "name": "gId_",
          "type": "bytes2"
        },
        {
          "indexed": true,
          "internalType": "bytes2",
          "name": "serviceId_",
          "type": "bytes2"
        },
        {
          "indexed": true,
          "internalType": "bytes28",
          "name": "uuid",
          "type": "bytes28"
        },
        {
          "components": [
            {
              "internalType": "address",
              "name": "to",
              "type": "address"
            },
            {
              "internalType": "contract IERC20",
              "name": "token",
              "type": "address"
            },
            {
              "internalType": "uint256",
              "name": "level",
              "type": "uint256"
            },
            {
              "internalType": "uint256",
              "name": "boughtTime",
              "type": "uint256"
            },
            {
              "internalType": "uint256",
              "name": "expiration",
              "type": "uint256"
            },
            {
              "internalType": "uint256",
              "name": "expectedCost",
              "type": "uint256"
            },
            {
              "internalType": "uint256",
              "name": "realCost",
              "type": "uint256"
            },
            {
              "components": [
                {
                  "internalType": "uint256",
                  "name": "bandwidth",
                  "type": "uint256"
                },
                {
                  "internalType": "uint256",
                  "name": "storageAmount",
                  "type": "uint256"
                },
                {
                  "internalType": "uint256",
                  "name": "buildingTime",
                  "type": "uint256"
                },
                {
                  "internalType": "uint256",
                  "name": "pricePerMonth",
                  "type": "uint256"
                },
                {
                  "internalType": "bool",
                  "name": "isValid",
                  "type": "bool"
                },
                {
                  "internalType": "string",
                  "name": "name",
                  "type": "string"
                }
              ],
              "internalType": "struct HostingCombos.Combo",
              "name": "combo",
              "type": "tuple"
            }
          ],
          "indexed": false,
          "internalType": "struct HostingExpiration.Receipt",
          "name": "receipt",
          "type": "tuple"
        }
      ],
      "name": "Renew",
      "type": "event"
    },
    {
      "anonymous": false,
      "inputs": [
        {
          "indexed": true,
          "internalType": "bytes2",
          "name": "gId_",
          "type": "bytes2"
        },
        {
          "indexed": true,
          "internalType": "bytes2",
          "name": "serviceId_",
          "type": "bytes2"
        },
        {
          "indexed": true,
          "internalType": "bytes28",
          "name": "uuid",
          "type": "bytes28"
        },
        {
          "components": [
            {
              "internalType": "address",
              "name": "to",
              "type": "address"
            },
            {
              "internalType": "contract IERC20",
              "name": "token",
              "type": "address"
            },
            {
              "internalType": "uint256",
              "name": "level",
              "type": "uint256"
            },
            {
              "internalType": "uint256",
              "name": "boughtTime",
              "type": "uint256"
            },
            {
              "internalType": "uint256",
              "name": "expiration",
              "type": "uint256"
            },
            {
              "internalType": "uint256",
              "name": "expectedCost",
              "type": "uint256"
            },
            {
              "internalType": "uint256",
              "name": "realCost",
              "type": "uint256"
            },
            {
              "components": [
                {
                  "internalType": "uint256",
                  "name": "bandwidth",
                  "type": "uint256"
                },
                {
                  "internalType": "uint256",
                  "name": "storageAmount",
                  "type": "uint256"
                },
                {
                  "internalType": "uint256",
                  "name": "buildingTime",
                  "type": "uint256"
                },
                {
                  "internalType": "uint256",
                  "name": "pricePerMonth",
                  "type": "uint256"
                },
                {
                  "internalType": "bool",
                  "name": "isValid",
                  "type": "bool"
                },
                {
                  "internalType": "string",
                  "name": "name",
                  "type": "string"
                }
              ],
              "internalType": "struct HostingCombos.Combo",
              "name": "combo",
              "type": "tuple"
            }
          ],
          "indexed": false,
          "internalType": "struct HostingExpiration.Receipt",
          "name": "receipt",
          "type": "tuple"
        }
      ],
      "name": "Upgrade",
      "type": "event"
    },
    {
      "inputs": [],
      "name": "MaxTotalExpiration",
      "outputs": [
        {
          "internalType": "uint256",
          "name": "",
          "type": "uint256"
        }
      ],
      "stateMutability": "view",
      "type": "function"
    },
    {
      "inputs": [],
      "name": "MinExpiration",
      "outputs": [
        {
          "internalType": "uint256",
          "name": "",
          "type": "uint256"
        }
      ],
      "stateMutability": "view",
      "type": "function"
    },
    {
      "inputs": [
        {
          "components": [
            {
              "internalType": "uint256",
              "name": "bandwidth",
              "type": "uint256"
            },
            {
              "internalType": "uint256",
              "name": "storageAmount",
              "type": "uint256"
            },
            {
              "internalType": "uint256",
              "name": "buildingTime",
              "type": "uint256"
            },
            {
              "internalType": "uint256",
              "name": "pricePerMonth",
              "type": "uint256"
            },
            {
              "internalType": "bool",
              "name": "isValid",
              "type": "bool"
            },
            {
              "internalType": "string",
              "name": "name",
              "type": "string"
            }
          ],
          "internalType": "struct HostingCombos.Combo",
          "name": "combo",
          "type": "tuple"
        }
      ],
      "name": "addCombo",
      "outputs": [],
      "stateMutability": "nonpayable",
      "type": "function"
    },
    {
      "inputs": [
        {
          "internalType": "contract IERC20",
          "name": "token",
          "type": "address"
        }
      ],
      "name": "addToken",
      "outputs": [],
      "stateMutability": "nonpayable",
      "type": "function"
    },
    {
      "inputs": [
        {
          "internalType": "bytes28",
          "name": "uuid",
          "type": "bytes28"
        },
        {
          "internalType": "uint256",
          "name": "tokenIndex",
          "type": "uint256"
        },
        {
          "internalType": "uint256",
          "name": "level",
          "type": "uint256"
        },
        {
          "internalType": "uint256",
          "name": "expiration_",
          "type": "uint256"
        }
      ],
      "name": "buy",
      "outputs": [
        {
          "internalType": "uint256",
          "name": "cost",
          "type": "uint256"
        }
      ],
      "stateMutability": "nonpayable",
      "type": "function"
    },
    {
      "inputs": [
        {
          "internalType": "bytes28",
          "name": "uuid",
          "type": "bytes28"
        },
        {
          "internalType": "uint256",
          "name": "level",
          "type": "uint256"
        }
      ],
      "name": "canBuy",
      "outputs": [
        {
          "internalType": "bool",
          "name": "",
          "type": "bool"
        }
      ],
      "stateMutability": "view",
      "type": "function"
    },
    {
      "inputs": [
        {
          "internalType": "bytes28",
          "name": "uuid",
          "type": "bytes28"
        }
      ],
      "name": "canRenew",
      "outputs": [
        {
          "internalType": "bool",
          "name": "",
          "type": "bool"
        }
      ],
      "stateMutability": "view",
      "type": "function"
    },
    {
      "inputs": [
        {
          "internalType": "bytes28",
          "name": "uuid",
          "type": "bytes28"
        },
        {
          "internalType": "uint256",
          "name": "level",
          "type": "uint256"
        }
      ],
      "name": "canUpgrade",
      "outputs": [
        {
          "internalType": "bool",
          "name": "",
          "type": "bool"
        }
      ],
      "stateMutability": "view",
      "type": "function"
    },
    {
      "inputs": [],
      "name": "comboLength",
      "outputs": [
        {
          "internalType": "uint256",
          "name": "",
          "type": "uint256"
        }
      ],
      "stateMutability": "view",
      "type": "function"
    },
    {
      "inputs": [
        {
          "internalType": "uint256",
          "name": "",
          "type": "uint256"
        }
      ],
      "name": "combos",
      "outputs": [
        {
          "internalType": "uint256",
          "name": "bandwidth",
          "type": "uint256"
        },
        {
          "internalType": "uint256",
          "name": "storageAmount",
          "type": "uint256"
        },
        {
          "internalType": "uint256",
          "name": "buildingTime",
          "type": "uint256"
        },
        {
          "internalType": "uint256",
          "name": "pricePerMonth",
          "type": "uint256"
        },
        {
          "internalType": "bool",
          "name": "isValid",
          "type": "bool"
        },
        {
          "internalType": "string",
          "name": "name",
          "type": "string"
        }
      ],
      "stateMutability": "view",
      "type": "function"
    },
    {
      "inputs": [
        {
          "internalType": "bytes28",
          "name": "uuid",
          "type": "bytes28"
        }
      ],
      "name": "expiration",
      "outputs": [
        {
          "internalType": "uint256",
          "name": "",
          "type": "uint256"
        }
      ],
      "stateMutability": "view",
      "type": "function"
    },
    {
      "inputs": [
        {
          "internalType": "bytes28",
          "name": "uuid",
          "type": "bytes28"
        }
      ],
      "name": "expirationAt",
      "outputs": [
        {
          "internalType": "uint256",
          "name": "",
          "type": "uint256"
        }
      ],
      "stateMutability": "view",
      "type": "function"
    },
    {
      "inputs": [],
      "name": "gId",
      "outputs": [
        {
          "internalType": "bytes2",
          "name": "",
          "type": "bytes2"
        }
      ],
      "stateMutability": "view",
      "type": "function"
    },
    {
      "inputs": [
        {
          "internalType": "uint256",
          "name": "level",
          "type": "uint256"
        },
        {
          "internalType": "uint256",
          "name": "expiration_",
          "type": "uint256"
        }
      ],
      "name": "getComboCost",
      "outputs": [
        {
          "internalType": "uint256",
          "name": "cost",
          "type": "uint256"
        }
      ],
      "stateMutability": "view",
      "type": "function"
    },
    {
      "inputs": [
        {
          "internalType": "bytes28",
          "name": "uuid",
          "type": "bytes28"
        },
        {
          "internalType": "uint256",
          "name": "level",
          "type": "uint256"
        }
      ],
      "name": "getUpgradeExchange",
      "outputs": [
        {
          "internalType": "uint256",
          "name": "expiration_",
          "type": "uint256"
        }
      ],
      "stateMutability": "view",
      "type": "function"
    },
    {
      "inputs": [
        {
          "internalType": "bytes28",
          "name": "uuid",
          "type": "bytes28"
        }
      ],
      "name": "guid",
      "outputs": [
        {
          "internalType": "bytes32",
          "name": "",
          "type": "bytes32"
        }
      ],
      "stateMutability": "view",
      "type": "function"
    },
    {
      "inputs": [
        {
          "internalType": "bytes28",
          "name": "uuid",
          "type": "bytes28"
        }
      ],
      "name": "isExpired",
      "outputs": [
        {
          "internalType": "bool",
          "name": "",
          "type": "bool"
        }
      ],
      "stateMutability": "view",
      "type": "function"
    },
    {
      "inputs": [],
      "name": "lock",
      "outputs": [],
      "stateMutability": "nonpayable",
      "type": "function"
    },
    {
      "inputs": [
        {
          "internalType": "bytes28",
          "name": "uuid",
          "type": "bytes28"
        }
      ],
      "name": "maxTotalRenewExpiration",
      "outputs": [
        {
          "internalType": "uint256",
          "name": "",
          "type": "uint256"
        }
      ],
      "stateMutability": "view",
      "type": "function"
    },
    {
      "inputs": [
        {
          "internalType": "bytes28",
          "name": "uuid",
          "type": "bytes28"
        },
        {
          "internalType": "uint256",
          "name": "level",
          "type": "uint256"
        }
      ],
      "name": "maxTotalUpgradeExpiration",
      "outputs": [
        {
          "internalType": "uint256",
          "name": "",
          "type": "uint256"
        }
      ],
      "stateMutability": "view",
      "type": "function"
    },
    {
      "inputs": [
        {
          "internalType": "bytes28",
          "name": "",
          "type": "bytes28"
        }
      ],
      "name": "nonces",
      "outputs": [
        {
          "internalType": "uint256",
          "name": "",
          "type": "uint256"
        }
      ],
      "stateMutability": "view",
      "type": "function"
    },
    {
      "inputs": [],
      "name": "owner",
      "outputs": [
        {
          "internalType": "address",
          "name": "",
          "type": "address"
        }
      ],
      "stateMutability": "view",
      "type": "function"
    },
    {
      "inputs": [
        {
          "internalType": "bytes28",
          "name": "",
          "type": "bytes28"
        }
      ],
      "name": "receipts",
      "outputs": [
        {
          "internalType": "address",
          "name": "to",
          "type": "address"
        },
        {
          "internalType": "contract IERC20",
          "name": "token",
          "type": "address"
        },
        {
          "internalType": "uint256",
          "name": "level",
          "type": "uint256"
        },
        {
          "internalType": "uint256",
          "name": "boughtTime",
          "type": "uint256"
        },
        {
          "internalType": "uint256",
          "name": "expiration",
          "type": "uint256"
        },
        {
          "internalType": "uint256",
          "name": "expectedCost",
          "type": "uint256"
        },
        {
          "internalType": "uint256",
          "name": "realCost",
          "type": "uint256"
        },
        {
          "components": [
            {
              "internalType": "uint256",
              "name": "bandwidth",
              "type": "uint256"
            },
            {
              "internalType": "uint256",
              "name": "storageAmount",
              "type": "uint256"
            },
            {
              "internalType": "uint256",
              "name": "buildingTime",
              "type": "uint256"
            },
            {
              "internalType": "uint256",
              "name": "pricePerMonth",
              "type": "uint256"
            },
            {
              "internalType": "bool",
              "name": "isValid",
              "type": "bool"
            },
            {
              "internalType": "string",
              "name": "name",
              "type": "string"
            }
          ],
          "internalType": "struct HostingCombos.Combo",
          "name": "combo",
          "type": "tuple"
        }
      ],
      "stateMutability": "view",
      "type": "function"
    },
    {
      "inputs": [
        {
          "internalType": "uint256",
          "name": "index",
          "type": "uint256"
        }
      ],
      "name": "removeToken",
      "outputs": [],
      "stateMutability": "nonpayable",
      "type": "function"
    },
    {
      "inputs": [
        {
          "internalType": "uint256",
          "name": "nonce",
          "type": "uint256"
        },
        {
          "internalType": "bytes28",
          "name": "uuid",
          "type": "bytes28"
        },
        {
          "internalType": "uint256",
          "name": "tokenIndex",
          "type": "uint256"
        },
        {
          "internalType": "uint256",
          "name": "expiration_",
          "type": "uint256"
        }
      ],
      "name": "renew",
      "outputs": [
        {
          "internalType": "uint256",
          "name": "cost",
          "type": "uint256"
        }
      ],
      "stateMutability": "nonpayable",
      "type": "function"
    },
    {
      "inputs": [],
      "name": "serviceId",
      "outputs": [
        {
          "internalType": "bytes2",
          "name": "",
          "type": "bytes2"
        }
      ],
      "stateMutability": "view",
      "type": "function"
    },
    {
      "inputs": [
        {
          "internalType": "uint256",
          "name": "expiration_",
          "type": "uint256"
        }
      ],
      "name": "setMaxTotalExpriation",
      "outputs": [],
      "stateMutability": "nonpayable",
      "type": "function"
    },
    {
      "inputs": [
        {
          "internalType": "uint256",
          "name": "expiration_",
          "type": "uint256"
        }
      ],
      "name": "setMinExpriation",
      "outputs": [],
      "stateMutability": "nonpayable",
      "type": "function"
    },
    {
      "inputs": [],
      "name": "tokenLength",
      "outputs": [
        {
          "internalType": "uint256",
          "name": "",
          "type": "uint256"
        }
      ],
      "stateMutability": "view",
      "type": "function"
    },
    {
      "inputs": [
        {
          "internalType": "uint256",
          "name": "",
          "type": "uint256"
        }
      ],
      "name": "tokens",
      "outputs": [
        {
          "internalType": "contract IERC20",
          "name": "",
          "type": "address"
        }
      ],
      "stateMutability": "view",
      "type": "function"
    },
    {
      "inputs": [
        {
          "internalType": "address",
          "name": "newOwner",
          "type": "address"
        }
      ],
      "name": "transferOwnership",
      "outputs": [],
      "stateMutability": "nonpayable",
      "type": "function"
    },
    {
      "inputs": [],
      "name": "unlock",
      "outputs": [],
      "stateMutability": "nonpayable",
      "type": "function"
    },
    {
      "inputs": [
        {
          "internalType": "uint256",
          "name": "level",
          "type": "uint256"
        },
        {
          "components": [
            {
              "internalType": "uint256",
              "name": "bandwidth",
              "type": "uint256"
            },
            {
              "internalType": "uint256",
              "name": "storageAmount",
              "type": "uint256"
            },
            {
              "internalType": "uint256",
              "name": "buildingTime",
              "type": "uint256"
            },
            {
              "internalType": "uint256",
              "name": "pricePerMonth",
              "type": "uint256"
            },
            {
              "internalType": "bool",
              "name": "isValid",
              "type": "bool"
            },
            {
              "internalType": "string",
              "name": "name",
              "type": "string"
            }
          ],
          "internalType": "struct HostingCombos.Combo",
          "name": "combo",
          "type": "tuple"
        }
      ],
      "name": "updateCombo",
      "outputs": [],
      "stateMutability": "nonpayable",
      "type": "function"
    },
    {
      "inputs": [
        {
          "internalType": "bytes28",
          "name": "uuid",
          "type": "bytes28"
        },
        {
          "internalType": "uint256",
          "name": "tokenIndex",
          "type": "uint256"
        },
        {
          "internalType": "uint256",
          "name": "level",
          "type": "uint256"
        },
        {
          "internalType": "uint256",
          "name": "moreExpiration",
          "type": "uint256"
        }
      ],
      "name": "upgrade",
      "outputs": [
        {
          "internalType": "uint256",
          "name": "value",
          "type": "uint256"
        }
      ],
      "stateMutability": "nonpayable",
      "type": "function"
    },
    {
      "inputs": [
        {
          "internalType": "uint256",
          "name": "level",
          "type": "uint256"
        }
      ],
      "name": "validateCombo",
      "outputs": [],
      "stateMutability": "view",
      "type": "function"
    },
    {
      "inputs": [
        {
          "internalType": "contract IERC20",
          "name": "token",
          "type": "address"
        },
        {
          "internalType": "address",
          "name": "to",
          "type": "address"
        },
        {
          "internalType": "uint256",
          "name": "value",
          "type": "uint256"
        }
      ],
      "name": "withdraw",
      "outputs": [],
      "stateMutability": "nonpayable",
      "type": "function"
    },
    {
      "stateMutability": "payable",
      "type": "receive"
    }
  ],
  "transactionHash": "0xbc0ac0af9ff8760c87a4dd2ce2d19c9de1afa8aa9db12361c9efabc1be8abb36",
  "args": [
    "0x2AfA39b1b1143d81f64F7A982649B376B05121F6"
  ],
  "bytecode": "0x60806040526000805460ff60201b1963ffff00001961ffff1990921660011791909116620100001716905562278d006003556301e133806004553480156200004657600080fd5b50604051620032a0380380620032a0833981016040819052620000699162000418565b600080546001600160a01b0383166501000000000002600160281b600160c81b03199091161781556040805160c081018252644b000000008152640a00000000602080830191825261753083850190815268022b1c8c1227a00000606085019081526001608086018181528751808901909852600388526250726f60e81b8886015260a0870197885281548083018355919098528551600690910260008051602062003220833981519152810191825594516000805160206200326083398151915286015591516000805160206200320083398151915285015551600080516020620032808339815191528401559451600080516020620031e08339815191528301805491151560ff1990921691909117905592518051601e959394620001a493600080516020620032408339815191520192019062000372565b50506040805160c0810182526103e8841b81526064841b60208083019182526201d4c0838501908152680ac9ae05a71ebc00006060850190815260016080860181815287518089019098526008885267427573696e65737360c01b8886015260a0870197885281548083018355600092909252865160069092026000805160206200322083398151915281019283559551600080516020620032608339815191528701559251600080516020620032008339815191528601559051600080516020620032808339815191528501559051600080516020620031e08339815191528401805491151560ff1990921691909117905593518051939550620002c093600080516020620032408339815191529093019291019062000372565b5050600580546001818101835560008390527f036b6384b5eca791c62761152d0c79bb0604c104a5fb6f4eb0703f3154bb3db091820180546001600160a01b031990811673998d6e0efc50a349bce64cc8d62d17dc2b34cfbf179091558354808301855583018054821673d1c2f175e03abe8666a5f7054be2f7b305026c1217905583549182019093550180549091167320d3889d5fd378394452d0f3294dbb6f79822a2c1790555062000485915050565b828054620003809062000448565b90600052602060002090601f016020900481019282620003a45760008555620003ef565b82601f10620003bf57805160ff1916838001178555620003ef565b82800160010185558215620003ef579182015b82811115620003ef578251825591602001919060010190620003d2565b50620003fd92915062000401565b5090565b5b80821115620003fd576000815560010162000402565b6000602082840312156200042a578081fd5b81516001600160a01b038116811462000441578182fd5b9392505050565b6002810460018216806200045d57607f821691505b602082108114156200047f57634e487b7160e01b600052602260045260246000fd5b50919050565b612d4b80620004956000396000f3fe6080604052600436106102135760003560e01c80638fb16a3b11610118578063d7f61493116100a0578063e5e24d491161006f578063e5e24d4914610636578063ee2bd16814610656578063f2fde38b14610676578063f576b70014610696578063f83d08ba146106ab57610239565b8063d7f61493146105cc578063d9caed12146105ec578063da20ec6a1461060c578063de66341e1461062157610239565b8063a4d02085116100e7578063a4d0208514610525578063a69df4b514610545578063aefa7c9b1461055a578063ca60fb3b1461058c578063d48bfca7146105ac57610239565b80638fb16a3b146104ae5780638fc24ef1146104ce578063a1adf833146104ee578063a2a19e451461050357610239565b8063513fafa41161019b578063693125701161016a57806369312570146104245780636e507c6e1461044457806372ee5066146104645780637b10f06d146104845780638da5cb5b1461049957610239565b8063513fafa4146103a457806353065b17146103c457806356230c95146103e45780636595ad4a1461040457610239565b80633041ebbc116101e25780633041ebbc146102e157806336c5d72414610315578063417b43c314610337578063461b442c146103575780634f64b2be1461037757610239565b8063135f03c91461023e57806319969a99146102745780631bdb9c64146102a15780631d608a59146102c157610239565b366102395760405162461bcd60e51b815260040161023090612912565b60405180910390fd5b600080fd5b34801561024a57600080fd5b5061025e6102593660046123b4565b6106c0565b60405161026b9190612769565b60405180910390f35b34801561028057600080fd5b5061029461028f36600461239a565b610739565b60405161026b9190612789565b3480156102ad57600080fd5b506102946102bc3660046123b4565b61076b565b3480156102cd57600080fd5b5061025e6102dc36600461239a565b6107a7565b3480156102ed57600080fd5b506103016102fc36600461239a565b610828565b60405161026b9897969594939291906126b3565b34801561032157600080fd5b50610335610330366004612488565b610952565b005b34801561034357600080fd5b506102946103523660046123b4565b6109c0565b34801561036357600080fd5b5061029461037236600461251f565b610a69565b34801561038357600080fd5b50610397610392366004612488565b610ac0565b60405161026b919061267b565b3480156103b057600080fd5b506102946103bf36600461239a565b610aea565b3480156103d057600080fd5b506103356103df366004612488565b610afc565b3480156103f057600080fd5b506102946103ff36600461239a565b610b32565b34801561041057600080fd5b5061029461041f3660046123dd565b610b5d565b34801561043057600080fd5b5061029461043f36600461239a565b610f4b565b34801561045057600080fd5b5061033561045f3660046124da565b610fc0565b34801561047057600080fd5b5061029461047f3660046123dd565b6110a2565b34801561049057600080fd5b506102946114b1565b3480156104a557600080fd5b506103976114b7565b3480156104ba57600080fd5b506103356104c9366004612488565b6114cd565b3480156104da57600080fd5b506103356104e9366004612455565b611545565b3480156104fa57600080fd5b506102946116a5565b34801561050f57600080fd5b506105186116ab565b60405161026b9190612774565b34801561053157600080fd5b5061025e61054036600461239a565b6116b4565b34801561055157600080fd5b506103356116c8565b34801561056657600080fd5b5061057a610575366004612488565b611709565b60405161026b96959493929190612b7f565b34801561059857600080fd5b5061025e6105a73660046123b4565b6117e1565b3480156105b857600080fd5b506103356105c7366004612362565b611910565b3480156105d857600080fd5b506102946105e73660046124a0565b611993565b3480156105f857600080fd5b50610335610607366004612415565b611ddc565b34801561061857600080fd5b50610518611e26565b34801561062d57600080fd5b50610294611e35565b34801561064257600080fd5b5061029461065136600461239a565b611e3b565b34801561066257600080fd5b50610335610671366004612488565b611e8a565b34801561068257600080fd5b50610335610691366004612362565b611ec0565b3480156106a257600080fd5b50610294611f1f565b3480156106b757600080fd5b50610335611f25565b6000600182815481106106e357634e487b7160e01b600052603260045260246000fd5b600091825260209091206004600690920201015460ff1661070657506000610733565b63ffffffff19831660009081526002602052604090206003015415806107305750610730836116b4565b90505b92915050565b63ffffffff1981166000908152600260205260408120600481015460039091015461076391611f6d565b90505b919050565b600061077783836117e1565b61078357506000610733565b600061078f84846109c0565b60045490915061079f9082611f79565b949350505050565b63ffffffff19811660009081526002602081905260408220015460018054829081106107e357634e487b7160e01b600052603260045260246000fd5b600091825260209091206004600690920201015460ff16610808576000915050610766565b505063ffffffff1916600090815260026020526040902060030154151590565b60026020818152600092835260409283902080546001820154938201546003830154600484015460058501546006860154895160c081018b52600788018054825260088901549982019990995260098801549a81019a909a52600a87015460608b0152600b87015460ff16151560808b0152600c870180546001600160a01b039788169b97909a1699959894979396929591949160a0840191906108cb90612c70565b80601f01602080910402602001604051908101604052809291908181526020018280546108f790612c70565b80156109445780601f1061091957610100808354040283529160200191610944565b820191906000526020600020905b81548152906001019060200180831161092757829003601f168201915b505050505081525050905088565b600054600160281b90046001600160a01b031633146109835760405162461bcd60e51b815260040161023090612820565b600581815481106109a457634e487b7160e01b600052603260045260246000fd5b600091825260209091200180546001600160a01b031916905550565b6000806109cc84610b32565b63ffffffff198516600090815260026020526040812060048101546005909101549293509091610a079190610a019085611f85565b90611f91565b90506000610a5362278d0060018781548110610a3357634e487b7160e01b600052603260045260246000fd5b906000526020600020906006020160030154611f9190919063ffffffff16565b9050610a5f8282611f91565b9695505050505050565b6000610a74836114cd565b61073062278d00610a018460018781548110610aa057634e487b7160e01b600052603260045260246000fd5b906000526020600020906006020160030154611f8590919063ffffffff16565b60058181548110610ad057600080fd5b6000918252602090912001546001600160a01b0316905081565b60066020526000908152604090205481565b600054600160281b90046001600160a01b03163314610b2d5760405162461bcd60e51b815260040161023090612820565b600355565b6000610b3d826116b4565b15610b4a57506000610766565b61076342610b5784610739565b90611f79565b60055460009084908110610b835760405162461bcd60e51b8152600401610230906128ca565b82600354811015610ba65760405162461bcd60e51b81526004016102309061284e565b8685610bb282826106c0565b610bce5760405162461bcd60e51b815260040161023090612956565b600054640100000000900460ff1615610bf95760405162461bcd60e51b815260040161023090612893565b610c02876114cd565b610c0c8787610a69565b9450610c5233308760058c81548110610c3557634e487b7160e01b600052603260045260246000fd5b6000918252602090912001546001600160a01b0316929190611f9d565b604051806101000160405280336001600160a01b0316815260200160058a81548110610c8e57634e487b7160e01b600052603260045260246000fd5b9060005260206000200160009054906101000a90046001600160a01b03166001600160a01b0316815260200188815260200142815260200187815260200186815260200186815260200160018981548110610cf957634e487b7160e01b600052603260045260246000fd5b90600052602060002090600602016040518060c0016040529081600082015481526020016001820154815260200160028201548152602001600382015481526020016004820160009054906101000a900460ff16151515158152602001600582018054610d6590612c70565b80601f0160208091040260200160405190810160405280929190818152602001828054610d9190612c70565b8015610dde5780601f10610db357610100808354040283529160200191610dde565b820191906000526020600020905b815481529060010190602001808311610dc157829003601f168201915b50505091909252505050905263ffffffff198a16600090815260026020818152604092839020845181546001600160a01b039182166001600160a01b03199182161783558684015160018401805491909316911617905584840151928101929092556060808501516003840155608080860151600485015560a080870151600586015560c0870151600686015560e087015180516007870190815581860151600888015596810151600987015592830151600a86015590820151600b8501805491151560ff199092169190911790558101518051939491939192610eca92600c8701929091019061218b565b50506000805463ffffffff198e16808352600260205260409283902092519095506001600160f01b031962010000830460f090811b821696509290921b90911692507f7f9a9d8710977af02ae3ef403454348d0ea372652c5951eb718f68c1c39381d391610f3791612afe565b60405180910390a450505050949350505050565b6000610f56826107a7565b610f6257506000610766565b610f6b826116b4565b15610f795750600454610766565b63ffffffff19821660009081526002602052604081206004810154600390910154610fa9914291610b5791611f6d565b600454909150610fb99082611f79565b9392505050565b600054600160281b90046001600160a01b03163314610ff15760405162461bcd60e51b815260040161023090612820565b60015482106110125760405162461bcd60e51b8152600401610230906127a5565b806001838154811061103457634e487b7160e01b600052603260045260246000fd5b60009182526020918290208351600692909202019081558282015160018201556040830151600282015560608301516003820155608083015160048201805460ff191691151591909117905560a08301518051919261109b9260058501929091019061218b565b5050505050565b600554600090849081106110c85760405162461bcd60e51b8152600401610230906128ca565b85846110d482826117e1565b6110f05760405162461bcd60e51b8152600401610230906129cf565b600054640100000000900460ff161561111b5760405162461bcd60e51b815260040161023090612893565b611124866114cd565b600061113089886109c0565b9050600061113e8883610a69565b6000965090508615611195576111548888610a69565b95506111608187611f6d565b905061116c8288611f6d565b915061119533308860058d81548110610c3557634e487b7160e01b600052603260045260246000fd5b6003548210156111b75760405162461bcd60e51b81526004016102309061284e565b604051806101000160405280336001600160a01b0316815260200160058b815481106111f357634e487b7160e01b600052603260045260246000fd5b9060005260206000200160009054906101000a90046001600160a01b03166001600160a01b0316815260200189815260200142815260200183815260200182815260200187815260200160018a8154811061125e57634e487b7160e01b600052603260045260246000fd5b90600052602060002090600602016040518060c0016040529081600082015481526020016001820154815260200160028201548152602001600382015481526020016004820160009054906101000a900460ff161515151581526020016005820180546112ca90612c70565b80601f01602080910402602001604051908101604052809291908181526020018280546112f690612c70565b80156113435780601f1061131857610100808354040283529160200191611343565b820191906000526020600020905b81548152906001019060200180831161132657829003601f168201915b50505091909252505050905263ffffffff198b16600090815260026020818152604092839020845181546001600160a01b039182166001600160a01b03199182161783558684015160018401805491909316911617905584840151928101929092556060808501516003840155608080860151600485015560a080870151600586015560c0870151600686015560e087015180516007870190815581860151600888015596810151600987015592830151600a86015590820151600b8501805491151560ff19909216919091179055810151805193949193919261142f92600c8701929091019061218b565b50506000805463ffffffff198f16808352600260205260409283902092519095506001600160f01b031962010000830460f090811b821696509290921b90911692507f43f83cc07e31ef65c21f60fd8aa3b919257c3004e11df8b03cf4c2d3847dd74b9161149c91612afe565b60405180910390a45050505050949350505050565b60045481565b600054600160281b90046001600160a01b031681565b60015481106114ee5760405162461bcd60e51b8152600401610230906127dc565b6001818154811061150f57634e487b7160e01b600052603260045260246000fd5b600091825260209091206004600690920201015460ff166115425760405162461bcd60e51b815260040161023090612a04565b50565b600054600160281b90046001600160a01b031633146115765760405162461bcd60e51b815260040161023090612820565b60018054808201825560009190915281517fb10e2d527612073b26eecdfd717e6a320cf44b4afac2b0732d9fcbe2b7fa0cf660069092029182019081556020808401517fb10e2d527612073b26eecdfd717e6a320cf44b4afac2b0732d9fcbe2b7fa0cf784015560408401517fb10e2d527612073b26eecdfd717e6a320cf44b4afac2b0732d9fcbe2b7fa0cf884015560608401517fb10e2d527612073b26eecdfd717e6a320cf44b4afac2b0732d9fcbe2b7fa0cf984015560808401517fb10e2d527612073b26eecdfd717e6a320cf44b4afac2b0732d9fcbe2b7fa0cfa8401805460ff191691151591909117905560a08401518051859461169f937fb10e2d527612073b26eecdfd717e6a320cf44b4afac2b0732d9fcbe2b7fa0cfb90910192019061218b565b50505050565b60035481565b60005460f01b81565b60006116bf82610739565b42101592915050565b600054600160281b90046001600160a01b031633146116f95760405162461bcd60e51b815260040161023090612820565b6000805464ff0000000019169055565b6001818154811061171957600080fd5b600091825260209091206006909102018054600182015460028301546003840154600485015460058601805495975093959294919360ff909116929161175e90612c70565b80601f016020809104026020016040519081016040528092919081815260200182805461178a90612c70565b80156117d75780601f106117ac576101008083540402835291602001916117d7565b820191906000526020600020905b8154815290600101906020018083116117ba57829003601f168201915b5050505050905086565b63ffffffff198216600090815260026020819052604082200154600180548290811061181d57634e487b7160e01b600052603260045260246000fd5b600091825260209091206004600690920201015460ff16611842576000915050610733565b6001838154811061186357634e487b7160e01b600052603260045260246000fd5b600091825260209091206004600690920201015460ff16611888576000915050610733565b611891846116b4565b156118a0576000915050610733565b600181815481106118c157634e487b7160e01b600052603260045260246000fd5b906000526020600020906006020160030154600184815481106118f457634e487b7160e01b600052603260045260246000fd5b9060005260206000209060060201600301541191505092915050565b600054600160281b90046001600160a01b031633146119415760405162461bcd60e51b815260040161023090612820565b600580546001810182556000919091527f036b6384b5eca791c62761152d0c79bb0604c104a5fb6f4eb0703f3154bb3db00180546001600160a01b0319166001600160a01b0392909216919091179055565b63ffffffff1983166000908152600660205260408120548490869081146119cc5760405162461bcd60e51b815260040161023090612ac7565b63ffffffff19821660009081526006602052604081208054916119ee83612cab565b909155505060055485908110611a165760405162461bcd60e51b8152600401610230906128ca565b84600354811015611a395760405162461bcd60e51b81526004016102309061284e565b87611a43816107a7565b611a5f5760405162461bcd60e51b815260040161023090612a85565b600054640100000000900460ff1615611a8a5760405162461bcd60e51b815260040161023090612893565b63ffffffff19891660009081526002602081905260409091200154611aae816114cd565b611ab88189610a69565b9650611ae133308960058d81548110610c3557634e487b7160e01b600052603260045260246000fd5b604051806101000160405280336001600160a01b0316815260200160058b81548110611b1d57634e487b7160e01b600052603260045260246000fd5b600091825260209182902001546001600160a01b031682528101839052426040820152606001611b56611b4f8d610b32565b8b90611f6d565b815260200188815260200188815260200160018381548110611b8857634e487b7160e01b600052603260045260246000fd5b90600052602060002090600602016040518060c0016040529081600082015481526020016001820154815260200160028201548152602001600382015481526020016004820160009054906101000a900460ff16151515158152602001600582018054611bf490612c70565b80601f0160208091040260200160405190810160405280929190818152602001828054611c2090612c70565b8015611c6d5780601f10611c4257610100808354040283529160200191611c6d565b820191906000526020600020905b815481529060010190602001808311611c5057829003601f168201915b50505091909252505050905263ffffffff198b16600090815260026020818152604092839020845181546001600160a01b039182166001600160a01b03199182161783558684015160018401805491909316911617905584840151928101929092556060808501516003840155608080860151600485015560a080870151600586015560c0870151600686015560e087015180516007870190815581860151600888015596810151600987015592830151600a86015590820151600b8501805491151560ff199092169190911790558101518051939491939192611d5992600c8701929091019061218b565b50506000805463ffffffff198f16808352600260205260409283902092519095506001600160f01b031962010000830460f090811b821696509290921b90911692507f3599a95b0285c0f73faa645dee4284095202902da249c92a9b33aaf44cb49c8d91611dc691612afe565b60405180910390a4505050505050949350505050565b600054600160281b90046001600160a01b03163314611e0d5760405162461bcd60e51b815260040161023090612820565b611e216001600160a01b0384168383611ff5565b505050565b60005462010000900460f01b81565b60055490565b600080548190611e5990829060f01b6001600160f01b031916611f6d565b600054909150611e7a90829062010000900460e01b61ffff60e01b16611f6d565b9050610fb981602085901c611f6d565b600054600160281b90046001600160a01b03163314611ebb5760405162461bcd60e51b815260040161023090612820565b600455565b600054600160281b90046001600160a01b03163314611ef15760405162461bcd60e51b815260040161023090612820565b600080546001600160a01b03909216600160281b0265010000000000600160c81b0319909216919091179055565b60015490565b600054600160281b90046001600160a01b03163314611f565760405162461bcd60e51b815260040161023090612820565b6000805464ff000000001916640100000000179055565b60006107308284612bca565b60006107308284612c21565b60006107308284612c02565b60006107308284612be2565b61169f846323b872dd60e01b858585604051602401611fbe9392919061268f565b60408051601f198184030181529190526020810180516001600160e01b03166001600160e01b031990931692909217909152612014565b611e218363a9059cbb60e01b8484604051602401611fbe929190612750565b6000612069826040518060400160405280602081526020017f5361666545524332303a206c6f772d6c6576656c2063616c6c206661696c6564815250856001600160a01b03166120a39092919063ffffffff16565b805190915015611e215780806020019051810190612087919061237e565b611e215760405162461bcd60e51b815260040161023090612a3b565b606061079f8484600085856120b78561214c565b6120d35760405162461bcd60e51b815260040161023090612998565b600080866001600160a01b031685876040516120ef919061265f565b60006040518083038185875af1925050503d806000811461212c576040519150601f19603f3d011682016040523d82523d6000602084013e612131565b606091505b5091509150612141828286612152565b979650505050505050565b3b151590565b60608315612161575081610fb9565b8251156121715782518084602001fd5b8160405162461bcd60e51b81526004016102309190612792565b82805461219790612c70565b90600052602060002090601f0160209004810192826121b957600085556121ff565b82601f106121d257805160ff19168380011785556121ff565b828001600101855582156121ff579182015b828111156121ff5782518255916020019190600101906121e4565b5061220b92915061220f565b5090565b5b8082111561220b5760008155600101612210565b803561076681612d07565b803563ffffffff198116811461076657600080fd5b600082601f830112612254578081fd5b813567ffffffffffffffff8082111561226f5761226f612cdc565b604051601f8301601f19168101602001828111828210171561229357612293612cdc565b6040528281528483016020018610156122aa578384fd5b82602086016020830137918201602001929092529392505050565b600060c082840312156122d6578081fd5b60405160c0810167ffffffffffffffff82821081831117156122fa576122fa612cdc565b816040528293508435835260208501356020840152604085013560408401526060850135606084015261232f60808601612224565b608084015260a085013591508082111561234857600080fd5b5061235585828601612244565b60a0830152505092915050565b600060208284031215612373578081fd5b8135610fb981612cf2565b60006020828403121561238f578081fd5b8151610fb981612d07565b6000602082840312156123ab578081fd5b6107308261222f565b600080604083850312156123c6578081fd5b6123cf8361222f565b946020939093013593505050565b600080600080608085870312156123f2578182fd5b6123fb8561222f565b966020860135965060408601359560600135945092505050565b600080600060608486031215612429578283fd5b833561243481612cf2565b9250602084013561244481612cf2565b929592945050506040919091013590565b600060208284031215612466578081fd5b813567ffffffffffffffff81111561247c578182fd5b61079f848285016122c5565b600060208284031215612499578081fd5b5035919050565b600080600080608085870312156124b5578384fd5b843593506124c56020860161222f565b93969395505050506040820135916060013590565b600080604083850312156124ec578182fd5b82359150602083013567ffffffffffffffff811115612509578182fd5b612515858286016122c5565b9150509250929050565b60008060408385031215612531578182fd5b50508035926020909101359150565b6001600160a01b03169052565b60008151808452612565816020860160208601612c44565b601f01601f19169290920160200192915050565b60008154835260018083015460208181870152600285015460408701526003850154606087015260ff6004860154161515608087015260058501915060c060a087015283825485600282049050858216806125d557607f821691505b8482108114156125f357634e487b7160e01b88526022600452602488fd5b6126008260c08c01612789565b81801561261457600181146126255761264f565b60ff1985168252868201955061264f565b61262e88612bbe565b8a5b8581101561264957815484820152908a01908801612630565b83019650505b50939a9950505050505050505050565b60008251612671818460208701612c44565b9190910192915050565b6001600160a01b0391909116815260200190565b6001600160a01b039384168152919092166020820152604081019190915260600190565b600061010060018060a01b03808c168452808b166020850152508860408401528760608401528660808401528560a08401528460c08401528060e0840152835181840152506020830151610120830152604083015161014083015260608301516101608301526080830151151561018083015260a083015160c06101a08401526127416101c084018261254d565b9b9a5050505050505050505050565b6001600160a01b03929092168252602082015260400190565b901515815260200190565b6001600160f01b031991909116815260200190565b90815260200190565b600060208252610730602083018461254d565b6020808252601e908201527f486f7374696e675061796d656e743a20496e76616c6964206c6576656c2e0000604082015260600190565b60208082526024908201527f486f7374696e675061796d656e743a20496e76616c696420636f6d626f206c656040820152633b32b61760e11b606082015260800190565b6020808252601490820152732637b1b5b0b136329d103737ba1037bbb732b91760611b604082015260600190565b60208082526025908201527f486f7374696e675061796d656e743a2065787069726174696f6e20746f6f207360408201526436b0b6361760d91b606082015260800190565b6020808252601e908201527f4c6f636b61626c653a206f7065726174696f6e206973206c6f636b65642e0000604082015260600190565b60208082526028908201527f486f7374696e675061796d656e743a20746f6b656e496e646578206f7574206f60408201526733103930b733b29760c11b606082015260800190565b60208082526024908201527f486f7374696e675061796d656e743a2063616e206e6f7420726563656976652060408201526332ba341760e11b606082015260800190565b60208082526022908201527f486f7374696e675061796d656e743a2063616e206e6f742062757920636f6d62604082015261379760f11b606082015260800190565b6020808252601d908201527f416464726573733a2063616c6c20746f206e6f6e2d636f6e7472616374000000604082015260600190565b6020808252818101527f486f7374696e675061796d656e743a2063616e206e6f7420757067726164652e604082015260600190565b6020808252601e908201527f486f7374696e675061796d656e743a20496e76616c696420636f6d626f2e0000604082015260600190565b6020808252602a908201527f5361666545524332303a204552433230206f7065726174696f6e20646964206e6040820152691bdd081cdd58d8d9595960b21b606082015260800190565b60208082526022908201527f486f7374696e675061796d656e743a2063616e6f742072656e657720636f6d62604082015261379760f11b606082015260800190565b6020808252601e908201527f486f7374696e675061796d656e743a20496e76616c6964206e6f6e63652e0000604082015260600190565b600060208252612b1a60208301612b158554612c38565b612540565b612b276001840154612c38565b612b346040840182612540565b506002830154606083015260038301546080830152600483015460a0830152600583015460c0830152600683015460e083015261010080830152610730610120830160078501612579565b6000878252866020830152856040830152846060830152831515608083015260c060a0830152612bb260c083018461254d565b98975050505050505050565b60009081526020902090565b60008219821115612bdd57612bdd612cc6565b500190565b600082612bfd57634e487b7160e01b81526012600452602481fd5b500490565b6000816000190483118215151615612c1c57612c1c612cc6565b500290565b600082821015612c3357612c33612cc6565b500390565b6001600160a01b031690565b60005b83811015612c5f578181015183820152602001612c47565b8381111561169f5750506000910152565b600281046001821680612c8457607f821691505b60208210811415612ca557634e487b7160e01b600052602260045260246000fd5b50919050565b6000600019821415612cbf57612cbf612cc6565b5060010190565b634e487b7160e01b600052601160045260246000fd5b634e487b7160e01b600052604160045260246000fd5b6001600160a01b038116811461154257600080fd5b801515811461154257600080fdfea264697066735822122056cf5094175c6a75d096bbd1045b846b31d663a8e0cdd6324c610acc5450cdfd64736f6c63430008000033b10e2d527612073b26eecdfd717e6a320cf44b4afac2b0732d9fcbe2b7fa0cfab10e2d527612073b26eecdfd717e6a320cf44b4afac2b0732d9fcbe2b7fa0cf8b10e2d527612073b26eecdfd717e6a320cf44b4afac2b0732d9fcbe2b7fa0cf6b10e2d527612073b26eecdfd717e6a320cf44b4afac2b0732d9fcbe2b7fa0cfbb10e2d527612073b26eecdfd717e6a320cf44b4afac2b0732d9fcbe2b7fa0cf7b10e2d527612073b26eecdfd717e6a320cf44b4afac2b0732d9fcbe2b7fa0cf9"
}