{
  "address": "0x526210781b9B6CA708274E58D277FB150ffE8D6a",
  "abi": [
    {
      "inputs": [
        {
          "internalType": "address",
          "name": "owner",
          "type": "address"
        },
        {
          "internalType": "contract IRootChannel",
          "name": "_channel",
          "type": "address"
        }
      ],
      "stateMutability": "nonpayable",
      "type": "constructor"
    },
    {
      "anonymous": false,
      "inputs": [
        {
          "indexed": true,
          "internalType": "bytes2",
          "name": "gId_",
          "type": "bytes2"
        },
        {
          "indexed": true,
          "internalType": "bytes2",
          "name": "serviceId_",
          "type": "bytes2"
        },
        {
          "indexed": true,
          "internalType": "bytes28",
          "name": "uuid",
          "type": "bytes28"
        },
        {
          "components": [
            {
              "internalType": "address",
              "name": "to",
              "type": "address"
            },
            {
              "internalType": "contract IERC20",
              "name": "token",
              "type": "address"
            },
            {
              "internalType": "uint256",
              "name": "level",
              "type": "uint256"
            },
            {
              "internalType": "uint256",
              "name": "boughtTime",
              "type": "uint256"
            },
            {
              "internalType": "uint256",
              "name": "expiration",
              "type": "uint256"
            },
            {
              "internalType": "uint256",
              "name": "expectedCost",
              "type": "uint256"
            },
            {
              "internalType": "uint256",
              "name": "realCost",
              "type": "uint256"
            },
            {
              "components": [
                {
                  "internalType": "uint256",
                  "name": "bandwidth",
                  "type": "uint256"
                },
                {
                  "internalType": "uint256",
                  "name": "storageAmount",
                  "type": "uint256"
                },
                {
                  "internalType": "uint256",
                  "name": "buildingTime",
                  "type": "uint256"
                },
                {
                  "internalType": "uint256",
                  "name": "pricePerMonth",
                  "type": "uint256"
                },
                {
                  "internalType": "bool",
                  "name": "isValid",
                  "type": "bool"
                },
                {
                  "internalType": "string",
                  "name": "name",
                  "type": "string"
                }
              ],
              "internalType": "struct HostingCombos.Combo",
              "name": "combo",
              "type": "tuple"
            }
          ],
          "indexed": false,
          "internalType": "struct HostingExpiration.Receipt",
          "name": "receipt",
          "type": "tuple"
        }
      ],
      "name": "Buy",
      "type": "event"
    },
    {
      "anonymous": false,
      "inputs": [
        {
          "indexed": true,
          "internalType": "address",
          "name": "previousOwner",
          "type": "address"
        },
        {
          "indexed": true,
          "internalType": "address",
          "name": "newOwner",
          "type": "address"
        }
      ],
      "name": "OwnershipTransferred",
      "type": "event"
    },
    {
      "anonymous": false,
      "inputs": [
        {
          "indexed": true,
          "internalType": "bytes2",
          "name": "gId_",
          "type": "bytes2"
        },
        {
          "indexed": true,
          "internalType": "bytes2",
          "name": "serviceId_",
          "type": "bytes2"
        },
        {
          "indexed": true,
          "internalType": "bytes28",
          "name": "uuid",
          "type": "bytes28"
        },
        {
          "components": [
            {
              "internalType": "address",
              "name": "to",
              "type": "address"
            },
            {
              "internalType": "contract IERC20",
              "name": "token",
              "type": "address"
            },
            {
              "internalType": "uint256",
              "name": "level",
              "type": "uint256"
            },
            {
              "internalType": "uint256",
              "name": "boughtTime",
              "type": "uint256"
            },
            {
              "internalType": "uint256",
              "name": "expiration",
              "type": "uint256"
            },
            {
              "internalType": "uint256",
              "name": "expectedCost",
              "type": "uint256"
            },
            {
              "internalType": "uint256",
              "name": "realCost",
              "type": "uint256"
            },
            {
              "components": [
                {
                  "internalType": "uint256",
                  "name": "bandwidth",
                  "type": "uint256"
                },
                {
                  "internalType": "uint256",
                  "name": "storageAmount",
                  "type": "uint256"
                },
                {
                  "internalType": "uint256",
                  "name": "buildingTime",
                  "type": "uint256"
                },
                {
                  "internalType": "uint256",
                  "name": "pricePerMonth",
                  "type": "uint256"
                },
                {
                  "internalType": "bool",
                  "name": "isValid",
                  "type": "bool"
                },
                {
                  "internalType": "string",
                  "name": "name",
                  "type": "string"
                }
              ],
              "internalType": "struct HostingCombos.Combo",
              "name": "combo",
              "type": "tuple"
            }
          ],
          "indexed": false,
          "internalType": "struct HostingExpiration.Receipt",
          "name": "receipt",
          "type": "tuple"
        }
      ],
      "name": "Renew",
      "type": "event"
    },
    {
      "anonymous": false,
      "inputs": [
        {
          "indexed": true,
          "internalType": "bytes2",
          "name": "gId_",
          "type": "bytes2"
        },
        {
          "indexed": true,
          "internalType": "bytes2",
          "name": "serviceId_",
          "type": "bytes2"
        },
        {
          "indexed": true,
          "internalType": "bytes28",
          "name": "uuid",
          "type": "bytes28"
        },
        {
          "components": [
            {
              "internalType": "address",
              "name": "to",
              "type": "address"
            },
            {
              "internalType": "contract IERC20",
              "name": "token",
              "type": "address"
            },
            {
              "internalType": "uint256",
              "name": "level",
              "type": "uint256"
            },
            {
              "internalType": "uint256",
              "name": "boughtTime",
              "type": "uint256"
            },
            {
              "internalType": "uint256",
              "name": "expiration",
              "type": "uint256"
            },
            {
              "internalType": "uint256",
              "name": "expectedCost",
              "type": "uint256"
            },
            {
              "internalType": "uint256",
              "name": "realCost",
              "type": "uint256"
            },
            {
              "components": [
                {
                  "internalType": "uint256",
                  "name": "bandwidth",
                  "type": "uint256"
                },
                {
                  "internalType": "uint256",
                  "name": "storageAmount",
                  "type": "uint256"
                },
                {
                  "internalType": "uint256",
                  "name": "buildingTime",
                  "type": "uint256"
                },
                {
                  "internalType": "uint256",
                  "name": "pricePerMonth",
                  "type": "uint256"
                },
                {
                  "internalType": "bool",
                  "name": "isValid",
                  "type": "bool"
                },
                {
                  "internalType": "string",
                  "name": "name",
                  "type": "string"
                }
              ],
              "internalType": "struct HostingCombos.Combo",
              "name": "combo",
              "type": "tuple"
            }
          ],
          "indexed": false,
          "internalType": "struct HostingExpiration.Receipt",
          "name": "receipt",
          "type": "tuple"
        }
      ],
      "name": "Upgrade",
      "type": "event"
    },
    {
      "inputs": [],
      "name": "MaxTotalExpiration",
      "outputs": [
        {
          "internalType": "uint256",
          "name": "",
          "type": "uint256"
        }
      ],
      "stateMutability": "view",
      "type": "function"
    },
    {
      "inputs": [],
      "name": "MinExpiration",
      "outputs": [
        {
          "internalType": "uint256",
          "name": "",
          "type": "uint256"
        }
      ],
      "stateMutability": "view",
      "type": "function"
    },
    {
      "inputs": [
        {
          "components": [
            {
              "internalType": "uint256",
              "name": "bandwidth",
              "type": "uint256"
            },
            {
              "internalType": "uint256",
              "name": "storageAmount",
              "type": "uint256"
            },
            {
              "internalType": "uint256",
              "name": "buildingTime",
              "type": "uint256"
            },
            {
              "internalType": "uint256",
              "name": "pricePerMonth",
              "type": "uint256"
            },
            {
              "internalType": "bool",
              "name": "isValid",
              "type": "bool"
            },
            {
              "internalType": "string",
              "name": "name",
              "type": "string"
            }
          ],
          "internalType": "struct HostingCombos.Combo",
          "name": "combo",
          "type": "tuple"
        }
      ],
      "name": "addCombo",
      "outputs": [],
      "stateMutability": "nonpayable",
      "type": "function"
    },
    {
      "inputs": [
        {
          "internalType": "contract IERC20",
          "name": "token",
          "type": "address"
        }
      ],
      "name": "addToken",
      "outputs": [],
      "stateMutability": "nonpayable",
      "type": "function"
    },
    {
      "inputs": [
        {
          "internalType": "bytes28",
          "name": "uuid",
          "type": "bytes28"
        },
        {
          "internalType": "uint256",
          "name": "tokenIndex",
          "type": "uint256"
        },
        {
          "internalType": "uint256",
          "name": "level",
          "type": "uint256"
        },
        {
          "internalType": "uint256",
          "name": "expiration_",
          "type": "uint256"
        }
      ],
      "name": "buy",
      "outputs": [
        {
          "internalType": "uint256",
          "name": "cost",
          "type": "uint256"
        }
      ],
      "stateMutability": "nonpayable",
      "type": "function"
    },
    {
      "inputs": [
        {
          "internalType": "bytes28",
          "name": "uuid",
          "type": "bytes28"
        },
        {
          "internalType": "uint256",
          "name": "level",
          "type": "uint256"
        }
      ],
      "name": "canBuy",
      "outputs": [
        {
          "internalType": "bool",
          "name": "",
          "type": "bool"
        }
      ],
      "stateMutability": "view",
      "type": "function"
    },
    {
      "inputs": [
        {
          "internalType": "bytes28",
          "name": "uuid",
          "type": "bytes28"
        }
      ],
      "name": "canRenew",
      "outputs": [
        {
          "internalType": "bool",
          "name": "",
          "type": "bool"
        }
      ],
      "stateMutability": "view",
      "type": "function"
    },
    {
      "inputs": [
        {
          "internalType": "bytes28",
          "name": "uuid",
          "type": "bytes28"
        },
        {
          "internalType": "uint256",
          "name": "level",
          "type": "uint256"
        }
      ],
      "name": "canUpgrade",
      "outputs": [
        {
          "internalType": "bool",
          "name": "",
          "type": "bool"
        }
      ],
      "stateMutability": "view",
      "type": "function"
    },
    {
      "inputs": [],
      "name": "channel",
      "outputs": [
        {
          "internalType": "contract IRootChannel",
          "name": "",
          "type": "address"
        }
      ],
      "stateMutability": "view",
      "type": "function"
    },
    {
      "inputs": [],
      "name": "comboLength",
      "outputs": [
        {
          "internalType": "uint256",
          "name": "",
          "type": "uint256"
        }
      ],
      "stateMutability": "view",
      "type": "function"
    },
    {
      "inputs": [
        {
          "internalType": "uint256",
          "name": "",
          "type": "uint256"
        }
      ],
      "name": "combos",
      "outputs": [
        {
          "internalType": "uint256",
          "name": "bandwidth",
          "type": "uint256"
        },
        {
          "internalType": "uint256",
          "name": "storageAmount",
          "type": "uint256"
        },
        {
          "internalType": "uint256",
          "name": "buildingTime",
          "type": "uint256"
        },
        {
          "internalType": "uint256",
          "name": "pricePerMonth",
          "type": "uint256"
        },
        {
          "internalType": "bool",
          "name": "isValid",
          "type": "bool"
        },
        {
          "internalType": "string",
          "name": "name",
          "type": "string"
        }
      ],
      "stateMutability": "view",
      "type": "function"
    },
    {
      "inputs": [
        {
          "internalType": "bytes28",
          "name": "uuid",
          "type": "bytes28"
        }
      ],
      "name": "expiration",
      "outputs": [
        {
          "internalType": "uint256",
          "name": "",
          "type": "uint256"
        }
      ],
      "stateMutability": "view",
      "type": "function"
    },
    {
      "inputs": [
        {
          "internalType": "bytes28",
          "name": "uuid",
          "type": "bytes28"
        }
      ],
      "name": "expirationAt",
      "outputs": [
        {
          "internalType": "uint256",
          "name": "",
          "type": "uint256"
        }
      ],
      "stateMutability": "view",
      "type": "function"
    },
    {
      "inputs": [],
      "name": "gId",
      "outputs": [
        {
          "internalType": "bytes2",
          "name": "",
          "type": "bytes2"
        }
      ],
      "stateMutability": "view",
      "type": "function"
    },
    {
      "inputs": [
        {
          "internalType": "uint256",
          "name": "level",
          "type": "uint256"
        },
        {
          "internalType": "uint256",
          "name": "expiration_",
          "type": "uint256"
        }
      ],
      "name": "getComboCost",
      "outputs": [
        {
          "internalType": "uint256",
          "name": "cost",
          "type": "uint256"
        }
      ],
      "stateMutability": "view",
      "type": "function"
    },
    {
      "inputs": [
        {
          "internalType": "bytes28",
          "name": "uuid",
          "type": "bytes28"
        },
        {
          "internalType": "uint256",
          "name": "level",
          "type": "uint256"
        }
      ],
      "name": "getUpgradeExchange",
      "outputs": [
        {
          "internalType": "uint256",
          "name": "expiration_",
          "type": "uint256"
        }
      ],
      "stateMutability": "view",
      "type": "function"
    },
    {
      "inputs": [
        {
          "internalType": "bytes28",
          "name": "uuid",
          "type": "bytes28"
        }
      ],
      "name": "guid",
      "outputs": [
        {
          "internalType": "bytes32",
          "name": "",
          "type": "bytes32"
        }
      ],
      "stateMutability": "view",
      "type": "function"
    },
    {
      "inputs": [
        {
          "internalType": "bytes28",
          "name": "uuid",
          "type": "bytes28"
        }
      ],
      "name": "isExpired",
      "outputs": [
        {
          "internalType": "bool",
          "name": "",
          "type": "bool"
        }
      ],
      "stateMutability": "view",
      "type": "function"
    },
    {
      "inputs": [],
      "name": "lock",
      "outputs": [],
      "stateMutability": "nonpayable",
      "type": "function"
    },
    {
      "inputs": [
        {
          "internalType": "bytes28",
          "name": "uuid",
          "type": "bytes28"
        }
      ],
      "name": "maxTotalRenewExpiration",
      "outputs": [
        {
          "internalType": "uint256",
          "name": "",
          "type": "uint256"
        }
      ],
      "stateMutability": "view",
      "type": "function"
    },
    {
      "inputs": [
        {
          "internalType": "bytes28",
          "name": "uuid",
          "type": "bytes28"
        },
        {
          "internalType": "uint256",
          "name": "level",
          "type": "uint256"
        }
      ],
      "name": "maxTotalUpgradeExpiration",
      "outputs": [
        {
          "internalType": "uint256",
          "name": "",
          "type": "uint256"
        }
      ],
      "stateMutability": "view",
      "type": "function"
    },
    {
      "inputs": [],
      "name": "mintStorage",
      "outputs": [
        {
          "internalType": "bytes4",
          "name": "",
          "type": "bytes4"
        }
      ],
      "stateMutability": "view",
      "type": "function"
    },
    {
      "inputs": [
        {
          "internalType": "bytes28",
          "name": "",
          "type": "bytes28"
        }
      ],
      "name": "nonces",
      "outputs": [
        {
          "internalType": "uint256",
          "name": "",
          "type": "uint256"
        }
      ],
      "stateMutability": "view",
      "type": "function"
    },
    {
      "inputs": [],
      "name": "owner",
      "outputs": [
        {
          "internalType": "address",
          "name": "",
          "type": "address"
        }
      ],
      "stateMutability": "view",
      "type": "function"
    },
    {
      "inputs": [
        {
          "internalType": "bytes28",
          "name": "",
          "type": "bytes28"
        }
      ],
      "name": "receipts",
      "outputs": [
        {
          "internalType": "address",
          "name": "to",
          "type": "address"
        },
        {
          "internalType": "contract IERC20",
          "name": "token",
          "type": "address"
        },
        {
          "internalType": "uint256",
          "name": "level",
          "type": "uint256"
        },
        {
          "internalType": "uint256",
          "name": "boughtTime",
          "type": "uint256"
        },
        {
          "internalType": "uint256",
          "name": "expiration",
          "type": "uint256"
        },
        {
          "internalType": "uint256",
          "name": "expectedCost",
          "type": "uint256"
        },
        {
          "internalType": "uint256",
          "name": "realCost",
          "type": "uint256"
        },
        {
          "components": [
            {
              "internalType": "uint256",
              "name": "bandwidth",
              "type": "uint256"
            },
            {
              "internalType": "uint256",
              "name": "storageAmount",
              "type": "uint256"
            },
            {
              "internalType": "uint256",
              "name": "buildingTime",
              "type": "uint256"
            },
            {
              "internalType": "uint256",
              "name": "pricePerMonth",
              "type": "uint256"
            },
            {
              "internalType": "bool",
              "name": "isValid",
              "type": "bool"
            },
            {
              "internalType": "string",
              "name": "name",
              "type": "string"
            }
          ],
          "internalType": "struct HostingCombos.Combo",
          "name": "combo",
          "type": "tuple"
        }
      ],
      "stateMutability": "view",
      "type": "function"
    },
    {
      "inputs": [
        {
          "internalType": "uint256",
          "name": "index",
          "type": "uint256"
        }
      ],
      "name": "removeToken",
      "outputs": [],
      "stateMutability": "nonpayable",
      "type": "function"
    },
    {
      "inputs": [
        {
          "internalType": "uint256",
          "name": "nonce",
          "type": "uint256"
        },
        {
          "internalType": "bytes28",
          "name": "uuid",
          "type": "bytes28"
        },
        {
          "internalType": "uint256",
          "name": "tokenIndex",
          "type": "uint256"
        },
        {
          "internalType": "uint256",
          "name": "expiration_",
          "type": "uint256"
        }
      ],
      "name": "renew",
      "outputs": [
        {
          "internalType": "uint256",
          "name": "cost",
          "type": "uint256"
        }
      ],
      "stateMutability": "nonpayable",
      "type": "function"
    },
    {
      "inputs": [],
      "name": "renounceOwnership",
      "outputs": [],
      "stateMutability": "nonpayable",
      "type": "function"
    },
    {
      "inputs": [],
      "name": "serviceId",
      "outputs": [
        {
          "internalType": "bytes2",
          "name": "",
          "type": "bytes2"
        }
      ],
      "stateMutability": "view",
      "type": "function"
    },
    {
      "inputs": [
        {
          "internalType": "uint256",
          "name": "expiration_",
          "type": "uint256"
        }
      ],
      "name": "setMaxTotalExpriation",
      "outputs": [],
      "stateMutability": "nonpayable",
      "type": "function"
    },
    {
      "inputs": [
        {
          "internalType": "uint256",
          "name": "expiration_",
          "type": "uint256"
        }
      ],
      "name": "setMinExpriation",
      "outputs": [],
      "stateMutability": "nonpayable",
      "type": "function"
    },
    {
      "inputs": [],
      "name": "tokenLength",
      "outputs": [
        {
          "internalType": "uint256",
          "name": "",
          "type": "uint256"
        }
      ],
      "stateMutability": "view",
      "type": "function"
    },
    {
      "inputs": [
        {
          "internalType": "uint256",
          "name": "",
          "type": "uint256"
        }
      ],
      "name": "tokens",
      "outputs": [
        {
          "internalType": "contract IERC20",
          "name": "",
          "type": "address"
        }
      ],
      "stateMutability": "view",
      "type": "function"
    },
    {
      "inputs": [
        {
          "internalType": "address",
          "name": "newOwner",
          "type": "address"
        }
      ],
      "name": "transferOwnership",
      "outputs": [],
      "stateMutability": "nonpayable",
      "type": "function"
    },
    {
      "inputs": [
        {
          "internalType": "contract IRootChannel",
          "name": "_channel",
          "type": "address"
        }
      ],
      "name": "transferRootChannel",
      "outputs": [],
      "stateMutability": "nonpayable",
      "type": "function"
    },
    {
      "inputs": [],
      "name": "unlock",
      "outputs": [],
      "stateMutability": "nonpayable",
      "type": "function"
    },
    {
      "inputs": [
        {
          "internalType": "uint256",
          "name": "level",
          "type": "uint256"
        },
        {
          "components": [
            {
              "internalType": "uint256",
              "name": "bandwidth",
              "type": "uint256"
            },
            {
              "internalType": "uint256",
              "name": "storageAmount",
              "type": "uint256"
            },
            {
              "internalType": "uint256",
              "name": "buildingTime",
              "type": "uint256"
            },
            {
              "internalType": "uint256",
              "name": "pricePerMonth",
              "type": "uint256"
            },
            {
              "internalType": "bool",
              "name": "isValid",
              "type": "bool"
            },
            {
              "internalType": "string",
              "name": "name",
              "type": "string"
            }
          ],
          "internalType": "struct HostingCombos.Combo",
          "name": "combo",
          "type": "tuple"
        }
      ],
      "name": "updateCombo",
      "outputs": [],
      "stateMutability": "nonpayable",
      "type": "function"
    },
    {
      "inputs": [
        {
          "internalType": "bytes28",
          "name": "uuid",
          "type": "bytes28"
        },
        {
          "internalType": "uint256",
          "name": "tokenIndex",
          "type": "uint256"
        },
        {
          "internalType": "uint256",
          "name": "level",
          "type": "uint256"
        },
        {
          "internalType": "uint256",
          "name": "moreExpiration",
          "type": "uint256"
        }
      ],
      "name": "upgrade",
      "outputs": [
        {
          "internalType": "uint256",
          "name": "value",
          "type": "uint256"
        }
      ],
      "stateMutability": "nonpayable",
      "type": "function"
    },
    {
      "inputs": [
        {
          "internalType": "uint256",
          "name": "level",
          "type": "uint256"
        }
      ],
      "name": "validateCombo",
      "outputs": [],
      "stateMutability": "view",
      "type": "function"
    },
    {
      "inputs": [
        {
          "internalType": "contract IERC20",
          "name": "token",
          "type": "address"
        },
        {
          "internalType": "address",
          "name": "to",
          "type": "address"
        },
        {
          "internalType": "uint256",
          "name": "amount",
          "type": "uint256"
        }
      ],
      "name": "withdraw",
      "outputs": [],
      "stateMutability": "nonpayable",
      "type": "function"
    },
    {
      "stateMutability": "payable",
      "type": "receive"
    }
  ],
  "transactionHash": "0x50fa50bcafe9797e251d971bf971706f0a74fd1081a1f531ab1fb4daf4acc427",
  "args": [
    "0xF1658C608708172655A8e70a1624c29F956Ee63D",
    "0x2910b541ca10059eD848Fd3895C1048997Af1836"
  ],
  "bytecode": "0x60806040526001805461ffff60b01b1961ffff60a01b19909116600160a01b1716600160b01b17905562278d006004556301e13380600555600780546499695f6b0064ffffffffff199091161790553480156200005b57600080fd5b506040516200391f3803806200391f8339810160408190526200007e916200052f565b80620000936200008d620003a0565b620003a4565b600180546001600160a01b0319166001600160a01b0392909216919091179055620000be82620003f4565b6040805160c081018252644b000000008152640a00000000602080830191825261753083850190815268022b1c8c1227a00000606085019081526001608086018181528751808901909852600388526250726f60e81b8886015260a0870197885260028054928301815560005286516000805160206200385f833981519152600690930292830190815595516000805160206200387f83398151915283015592516000805160206200389f8339815191528201559051600080516020620038bf8339815191528201559051600080516020620038df8339815191528201805460ff191691151591909117905593518051601e95620001d293600080516020620038ff83398151915290910192019062000489565b50506040805160c0810182526103e8841b81526064841b60208083019182526201d4c0838501908152680ac9ae05a71ebc00006060850190815260016080860181815287518089019098526008885267427573696e65737360c01b8886015260a08701978852600280549283018155600052865160069092026000805160206200385f833981519152810192835595516000805160206200387f83398151915287015592516000805160206200389f8339815191528601559051600080516020620038bf8339815191528501559051600080516020620038df8339815191528401805491151560ff1990921691909117905593518051939550620002ed93600080516020620038ff8339815191529093019291019062000489565b5050600680546001818101835560008390527ff652222313e28459528d920b65115c16c04f3efc82aaedc97be59f3f377c0d3f91820180546001600160a01b031990811673998d6e0efc50a349bce64cc8d62d17dc2b34cfbf179091558354808301855583018054821673d1c2f175e03abe8666a5f7054be2f7b305026c1217905583549182019093550180549091167320d3889d5fd378394452d0f3294dbb6f79822a2c179055506200063b92505050565b3390565b600080546001600160a01b038381166001600160a01b0319831681178455604051919092169283917f8be0079c531659141344cd1fd0a4f28419497f9722a3daafe3b4186f6b6457e09190a35050565b620003fe620003a0565b6001600160a01b0316620004116200047a565b6001600160a01b031614620004435760405162461bcd60e51b81526004016200043a90620005b3565b60405180910390fd5b6001600160a01b0381166200046c5760405162461bcd60e51b81526004016200043a906200056d565b6200047781620003a4565b50565b6000546001600160a01b031690565b8280546200049790620005e8565b90600052602060002090601f016020900481019282620004bb576000855562000506565b82601f10620004d657805160ff191683800117855562000506565b8280016001018555821562000506579182015b8281111562000506578251825591602001919060010190620004e9565b506200051492915062000518565b5090565b5b8082111562000514576000815560010162000519565b6000806040838503121562000542578182fd5b82516200054f8162000625565b6020840151909250620005628162000625565b809150509250929050565b60208082526026908201527f4f776e61626c653a206e6577206f776e657220697320746865207a65726f206160408201526564647265737360d01b606082015260800190565b6020808252818101527f4f776e61626c653a2063616c6c6572206973206e6f7420746865206f776e6572604082015260600190565b600281046001821680620005fd57607f821691505b602082108114156200061f57634e487b7160e01b600052602260045260246000fd5b50919050565b6001600160a01b03811681146200047757600080fd5b613214806200064b6000396000f3fe60806040526004361061023f5760003560e01c80638da5cb5b1161012e578063d6fa8abc116100ab578063e5e24d491161006f578063e5e24d49146106ce578063ee2bd168146106ee578063f2fde38b1461070e578063f576b7001461072e578063f83d08ba1461074357610265565b8063d6fa8abc14610644578063d7f6149314610664578063d9caed1214610684578063da20ec6a146106a4578063de66341e146106b957610265565b8063a4d02085116100f2578063a4d020851461059d578063a69df4b5146105bd578063aefa7c9b146105d2578063ca60fb3b14610604578063d48bfca71461062457610265565b80638da5cb5b146105115780638fb16a3b146105265780638fc24ef114610546578063a1adf83314610566578063a2a19e451461057b57610265565b806353065b17116101bc578063715018a611610180578063715018a61461049057806372ee5066146104a55780637b10f06d146104c55780637bbdb96e146104da5780638b325672146104ef57610265565b806353065b17146103f057806356230c95146104105780636595ad4a1461043057806369312570146104505780636e507c6e1461047057610265565b806336c5d7241161020357806336c5d72414610341578063417b43c314610363578063461b442c146103835780634f64b2be146103a3578063513fafa4146103d057610265565b8063135f03c91461026a57806319969a99146102a05780631bdb9c64146102cd5780631d608a59146102ed5780633041ebbc1461030d57610265565b366102655760405162461bcd60e51b815260040161025c90612da6565b60405180910390fd5b600080fd5b34801561027657600080fd5b5061028a610285366004612797565b610758565b6040516102979190612b4c565b60405180910390f35b3480156102ac57600080fd5b506102c06102bb36600461277d565b6107d2565b6040516102979190612ba5565b3480156102d957600080fd5b506102c06102e8366004612797565b610803565b3480156102f957600080fd5b5061028a61030836600461277d565b61083f565b34801561031957600080fd5b5061032d61032836600461277d565b6108c4565b604051610297989796959493929190612a96565b34801561034d57600080fd5b5061036161035c36600461286b565b6109ed565b005b34801561036f57600080fd5b506102c061037e366004612797565b610a69565b34801561038f57600080fd5b506102c061039e366004612902565b610b12565b3480156103af57600080fd5b506103c36103be36600461286b565b610b69565b6040516102979190612a5e565b3480156103dc57600080fd5b506102c06103eb36600461277d565b610b93565b3480156103fc57600080fd5b5061036161040b36600461286b565b610ba5565b34801561041c57600080fd5b506102c061042b36600461277d565b610be9565b34801561043c57600080fd5b506102c061044b3660046127c0565b610c14565b34801561045c57600080fd5b506102c061046b36600461277d565b611008565b34801561047c57600080fd5b5061036161048b3660046128bd565b61107c565b34801561049c57600080fd5b5061036161116c565b3480156104b157600080fd5b506102c06104c03660046127c0565b6111b7565b3480156104d157600080fd5b506102c06115cc565b3480156104e657600080fd5b506103c36115d2565b3480156104fb57600080fd5b506105046115e1565b6040516102979190612bae565b34801561051d57600080fd5b506103c36115ef565b34801561053257600080fd5b5061036161054136600461286b565b6115fe565b34801561055257600080fd5b50610361610561366004612838565b611676565b34801561057257600080fd5b506102c06117e5565b34801561058757600080fd5b506105906117eb565b6040516102979190612b57565b3480156105a957600080fd5b5061028a6105b836600461277d565b6117fb565b3480156105c957600080fd5b5061036161180f565b3480156105de57600080fd5b506105f26105ed36600461286b565b61185a565b60405161029796959493929190613048565b34801561061057600080fd5b5061028a61061f366004612797565b611932565b34801561063057600080fd5b5061036161063f366004612745565b611a64565b34801561065057600080fd5b5061036161065f366004612745565b611af5565b34801561067057600080fd5b506102c061067f366004612883565b611b56565b34801561069057600080fd5b5061036161069f3660046127f8565b611fa4565b3480156106b057600080fd5b50610590611ffc565b3480156106c557600080fd5b506102c061200c565b3480156106da57600080fd5b506102c06106e936600461277d565b612012565b3480156106fa57600080fd5b5061036161070936600461286b565b61206b565b34801561071a57600080fd5b50610361610729366004612745565b6120af565b34801561073a57600080fd5b506102c061211d565b34801561074f57600080fd5b50610361612123565b60006002828154811061077b57634e487b7160e01b600052603260045260246000fd5b600091825260209091206004600690920201015460ff1661079e575060006107cc565b63ffffffff1983166000908152600360208190526040909120015415806107c957506107c9836117fb565b90505b92915050565b63ffffffff1981166000908152600360208190526040822060048101549101546107fb91612171565b90505b919050565b600061080f8383611932565b61081b575060006107cc565b60006108278484610a69565b600554909150610837908261217d565b949350505050565b63ffffffff198116600090815260036020526040812060029081015481549091908290811061087e57634e487b7160e01b600052603260045260246000fd5b600091825260209091206004600690920201015460ff166108a35760009150506107fe565b505063ffffffff191660009081526003602081905260409091200154151590565b60036020818152600092835260409283902080546001820154600283015494830154600484015460058501546006860154895160c081018b52600788018054825260088901549982019990995260098801549a81019a909a52600a87015460608b0152600b87015460ff16151560808b0152600c870180546001600160a01b039788169b97909616999894979396929591949160a08401919061096690613139565b80601f016020809104026020016040519081016040528092919081815260200182805461099290613139565b80156109df5780601f106109b4576101008083540402835291602001916109df565b820191906000526020600020905b8154815290600101906020018083116109c257829003601f168201915b505050505081525050905088565b6109f5612189565b6001600160a01b0316610a066115ef565b6001600160a01b031614610a2c5760405162461bcd60e51b815260040161025c90612dea565b60068181548110610a4d57634e487b7160e01b600052603260045260246000fd5b600091825260209091200180546001600160a01b031916905550565b600080610a7584610be9565b63ffffffff198516600090815260036020526040812060048101546005909101549293509091610ab09190610aaa908561218d565b90612199565b90506000610afc62278d0060028781548110610adc57634e487b7160e01b600052603260045260246000fd5b90600052602060002090600602016003015461219990919063ffffffff16565b9050610b088282612199565b9695505050505050565b6000610b1d836115fe565b6107c962278d00610aaa8460028781548110610b4957634e487b7160e01b600052603260045260246000fd5b90600052602060002090600602016003015461218d90919063ffffffff16565b60068181548110610b7957600080fd5b6000918252602090912001546001600160a01b0316905081565b60086020526000908152604090205481565b610bad612189565b6001600160a01b0316610bbe6115ef565b6001600160a01b031614610be45760405162461bcd60e51b815260040161025c90612dea565b600455565b6000610bf4826117fb565b15610c01575060006107fe565b6107fb42610c0e846107d2565b9061217d565b60065460009084908110610c3a5760405162461bcd60e51b815260040161025c90612d5e565b82600454811015610c5d5760405162461bcd60e51b815260040161025c90612ce2565b8685610c698282610758565b610c855760405162461bcd60e51b815260040161025c90612e1f565b60075460ff1615610ca85760405162461bcd60e51b815260040161025c90612d27565b610cb1876115fe565b610cbb8787610b12565b9450610d0133308760068c81548110610ce457634e487b7160e01b600052603260045260246000fd5b6000918252602090912001546001600160a01b03169291906121a5565b604051806101000160405280336001600160a01b0316815260200160068a81548110610d3d57634e487b7160e01b600052603260045260246000fd5b9060005260206000200160009054906101000a90046001600160a01b03166001600160a01b0316815260200188815260200142815260200187815260200186815260200186815260200160028981548110610da857634e487b7160e01b600052603260045260246000fd5b90600052602060002090600602016040518060c0016040529081600082015481526020016001820154815260200160028201548152602001600382015481526020016004820160009054906101000a900460ff16151515158152602001600582018054610e1490613139565b80601f0160208091040260200160405190810160405280929190818152602001828054610e4090613139565b8015610e8d5780601f10610e6257610100808354040283529160200191610e8d565b820191906000526020600020905b815481529060010190602001808311610e7057829003601f168201915b50505091909252505050905263ffffffff198a16600090815260036020818152604092839020845181546001600160a01b039182166001600160a01b03199182161783558684015160018401805491909316911617905584840151600282015560608086015193820193909355608080860151600483015560a080870151600584015560c0870151600684015560e087015180516007850190815581860151600886015596810151600985015594850151600a84015590840151600b8301805491151560ff199092169190911790558301518051919492610f7692600c8701929091019061256e565b505050905050610f85896121fd565b60015463ffffffff198a1660008181526003602052604090819020905191926001600160f01b0319600160b01b820460f090811b821694600160a01b909304901b16917f7f9a9d8710977af02ae3ef403454348d0ea372652c5951eb718f68c1c39381d391610ff49190612fc7565b60405180910390a450505050949350505050565b60006110138261083f565b61101f575060006107fe565b611028826117fb565b1561103657506005546107fe565b63ffffffff198216600090815260036020819052604082206004810154910154611065914291610c0e91612171565b600554909150611075908261217d565b9392505050565b611084612189565b6001600160a01b03166110956115ef565b6001600160a01b0316146110bb5760405162461bcd60e51b815260040161025c90612dea565b60025482106110dc5760405162461bcd60e51b815260040161025c90612bd6565b80600283815481106110fe57634e487b7160e01b600052603260045260246000fd5b60009182526020918290208351600692909202019081558282015160018201556040830151600282015560608301516003820155608083015160048201805460ff191691151591909117905560a0830151805191926111659260058501929091019061256e565b5050505050565b611174612189565b6001600160a01b03166111856115ef565b6001600160a01b0316146111ab5760405162461bcd60e51b815260040161025c90612dea565b6111b5600061232a565b565b600654600090849081106111dd5760405162461bcd60e51b815260040161025c90612d5e565b85846111e98282611932565b6112055760405162461bcd60e51b815260040161025c90612e98565b60075460ff16156112285760405162461bcd60e51b815260040161025c90612d27565b611231866115fe565b600061123d8988610a69565b9050600061124b8883610b12565b60009650905086156112a2576112618888610b12565b955061126d8187612171565b90506112798288612171565b91506112a233308860068d81548110610ce457634e487b7160e01b600052603260045260246000fd5b6004548210156112c45760405162461bcd60e51b815260040161025c90612ce2565b604051806101000160405280336001600160a01b0316815260200160068b8154811061130057634e487b7160e01b600052603260045260246000fd5b9060005260206000200160009054906101000a90046001600160a01b03166001600160a01b0316815260200189815260200142815260200183815260200182815260200187815260200160028a8154811061136b57634e487b7160e01b600052603260045260246000fd5b90600052602060002090600602016040518060c0016040529081600082015481526020016001820154815260200160028201548152602001600382015481526020016004820160009054906101000a900460ff161515151581526020016005820180546113d790613139565b80601f016020809104026020016040519081016040528092919081815260200182805461140390613139565b80156114505780601f1061142557610100808354040283529160200191611450565b820191906000526020600020905b81548152906001019060200180831161143357829003601f168201915b50505091909252505050905263ffffffff198b16600090815260036020818152604092839020845181546001600160a01b039182166001600160a01b03199182161783558684015160018401805491909316911617905584840151600282015560608086015193820193909355608080860151600483015560a080870151600584015560c0870151600684015560e087015180516007850190815581860151600886015596810151600985015594850151600a84015590840151600b8301805491151560ff19909216919091179055830151805191949261153992600c8701929091019061256e565b5050509050506115488a6121fd565b60015463ffffffff198b1660008181526003602052604090819020905191926001600160f01b0319600160b01b820460f090811b821694600160a01b909304901b16917f43f83cc07e31ef65c21f60fd8aa3b919257c3004e11df8b03cf4c2d3847dd74b916115b79190612fc7565b60405180910390a45050505050949350505050565b60055481565b6001546001600160a01b031681565b600754610100900460e01b81565b6000546001600160a01b031690565b600254811061161f5760405162461bcd60e51b815260040161025c90612c9e565b6002818154811061164057634e487b7160e01b600052603260045260246000fd5b600091825260209091206004600690920201015460ff166116735760405162461bcd60e51b815260040161025c90612ecd565b50565b61167e612189565b6001600160a01b031661168f6115ef565b6001600160a01b0316146116b55760405162461bcd60e51b815260040161025c90612dea565b6002805460018101825560009190915281517f405787fa12a823e0f2b7631cc41b3ba8828b3321ca811111fa75cd3aa3bb5ace60069092029182019081556020808401517f405787fa12a823e0f2b7631cc41b3ba8828b3321ca811111fa75cd3aa3bb5acf84015560408401517f405787fa12a823e0f2b7631cc41b3ba8828b3321ca811111fa75cd3aa3bb5ad084015560608401517f405787fa12a823e0f2b7631cc41b3ba8828b3321ca811111fa75cd3aa3bb5ad184015560808401517f405787fa12a823e0f2b7631cc41b3ba8828b3321ca811111fa75cd3aa3bb5ad28401805460ff191691151591909117905560a0840151805185946117df937f405787fa12a823e0f2b7631cc41b3ba8828b3321ca811111fa75cd3aa3bb5ad390910192019061256e565b50505050565b60045481565b600154600160a01b900460f01b81565b6000611806826107d2565b42101592915050565b611817612189565b6001600160a01b03166118286115ef565b6001600160a01b03161461184e5760405162461bcd60e51b815260040161025c90612dea565b6007805460ff19169055565b6002818154811061186a57600080fd5b600091825260209091206006909102018054600182015460028301546003840154600485015460058601805495975093959294919360ff90911692916118af90613139565b80601f01602080910402602001604051908101604052809291908181526020018280546118db90613139565b80156119285780601f106118fd57610100808354040283529160200191611928565b820191906000526020600020905b81548152906001019060200180831161190b57829003601f168201915b5050505050905086565b63ffffffff198216600090815260036020526040812060029081015481549091908290811061197157634e487b7160e01b600052603260045260246000fd5b600091825260209091206004600690920201015460ff166119965760009150506107cc565b600283815481106119b757634e487b7160e01b600052603260045260246000fd5b600091825260209091206004600690920201015460ff166119dc5760009150506107cc565b6119e5846117fb565b156119f45760009150506107cc565b60028181548110611a1557634e487b7160e01b600052603260045260246000fd5b90600052602060002090600602016003015460028481548110611a4857634e487b7160e01b600052603260045260246000fd5b9060005260206000209060060201600301541191505092915050565b611a6c612189565b6001600160a01b0316611a7d6115ef565b6001600160a01b031614611aa35760405162461bcd60e51b815260040161025c90612dea565b600680546001810182556000919091527ff652222313e28459528d920b65115c16c04f3efc82aaedc97be59f3f377c0d3f0180546001600160a01b0319166001600160a01b0392909216919091179055565b611afd612189565b6001600160a01b0316611b0e6115ef565b6001600160a01b031614611b345760405162461bcd60e51b815260040161025c90612dea565b600180546001600160a01b0319166001600160a01b0392909216919091179055565b63ffffffff198316600090815260086020526040812054849086908114611b8f5760405162461bcd60e51b815260040161025c90612f90565b63ffffffff1982166000908152600860205260408120805491611bb183613174565b909155505060065485908110611bd95760405162461bcd60e51b815260040161025c90612d5e565b84600454811015611bfc5760405162461bcd60e51b815260040161025c90612ce2565b87611c068161083f565b611c225760405162461bcd60e51b815260040161025c90612f4e565b60075460ff1615611c455760405162461bcd60e51b815260040161025c90612d27565b63ffffffff198916600090815260036020526040902060020154611c68816115fe565b611c728189610b12565b9650611c9b33308960068d81548110610ce457634e487b7160e01b600052603260045260246000fd5b604051806101000160405280336001600160a01b0316815260200160068b81548110611cd757634e487b7160e01b600052603260045260246000fd5b600091825260209182902001546001600160a01b031682528101839052426040820152606001611d10611d098d610be9565b8b90612171565b815260200188815260200188815260200160028381548110611d4257634e487b7160e01b600052603260045260246000fd5b90600052602060002090600602016040518060c0016040529081600082015481526020016001820154815260200160028201548152602001600382015481526020016004820160009054906101000a900460ff16151515158152602001600582018054611dae90613139565b80601f0160208091040260200160405190810160405280929190818152602001828054611dda90613139565b8015611e275780601f10611dfc57610100808354040283529160200191611e27565b820191906000526020600020905b815481529060010190602001808311611e0a57829003601f168201915b50505091909252505050905263ffffffff198b16600090815260036020818152604092839020845181546001600160a01b039182166001600160a01b03199182161783558684015160018401805491909316911617905584840151600282015560608086015193820193909355608080860151600483015560a080870151600584015560c0870151600684015560e087015180516007850190815581860151600886015596810151600985015594850151600a84015590840151600b8301805491151560ff199092169190911790558301518051919492611f1092600c8701929091019061256e565b505050905050611f1f8a6121fd565b60015463ffffffff198b1660008181526003602052604090819020905191926001600160f01b0319600160b01b820460f090811b821694600160a01b909304901b16917f3599a95b0285c0f73faa645dee4284095202902da249c92a9b33aaf44cb49c8d91611f8e9190612fc7565b60405180910390a4505050505050949350505050565b611fac612189565b6001600160a01b0316611fbd6115ef565b6001600160a01b031614611fe35760405162461bcd60e51b815260040161025c90612dea565b611ff76001600160a01b038416838361237a565b505050565b600154600160b01b900460f01b81565b60065490565b6001546000908190612039908290600160a01b900460f01b6001600160f01b031916612171565b60015490915061205b908290600160b01b900460e01b61ffff60e01b16612171565b905061107581602085901c612171565b612073612189565b6001600160a01b03166120846115ef565b6001600160a01b0316146120aa5760405162461bcd60e51b815260040161025c90612dea565b600555565b6120b7612189565b6001600160a01b03166120c86115ef565b6001600160a01b0316146120ee5760405162461bcd60e51b815260040161025c90612dea565b6001600160a01b0381166121145760405162461bcd60e51b815260040161025c90612c58565b6116738161232a565b60025490565b61212b612189565b6001600160a01b031661213c6115ef565b6001600160a01b0316146121625760405162461bcd60e51b815260040161025c90612dea565b6007805460ff19166001179055565b60006107c98284613093565b60006107c982846130ea565b3390565b60006107c982846130cb565b60006107c982846130ab565b6117df846323b872dd60e01b8585856040516024016121c693929190612a72565b60408051601f198184030181529190526020810180516001600160e01b03166001600160e01b031990931692909217909152612399565b60055463ffffffff1982166000908152600360205260409020600401548291101561223a5760405162461bcd60e51b815260040161025c90612c0d565b60075460015463ffffffff1984166000908152600360205260409020600290810154815461232694610100900460e01b93600160a01b810460f090811b94600160b01b909204901b92889281106122a157634e487b7160e01b600052603260045260246000fd5b600091825260208083206001600690930201919091015463ffffffff198a16835260039091526040909120600401546122db904290612171565b6040516024016122ef959493929190612b6c565b60408051601f198184030181529190526020810180516001600160e01b03166001600160e01b031990931692909217909152612428565b5050565b600080546001600160a01b038381166001600160a01b0319831681178455604051919092169283917f8be0079c531659141344cd1fd0a4f28419497f9722a3daafe3b4186f6b6457e09190a35050565b611ff78363a9059cbb60e01b84846040516024016121c6929190612b33565b60006123ee826040518060400160405280602081526020017f5361666545524332303a206c6f772d6c6576656c2063616c6c206661696c6564815250856001600160a01b03166124869092919063ffffffff16565b805190915015611ff7578080602001905181019061240c9190612761565b611ff75760405162461bcd60e51b815260040161025c90612f04565b6001546040516309813cdd60e31b81526001600160a01b0390911690634c09e6e890612458908490600401612bc3565b600060405180830381600087803b15801561247257600080fd5b505af1158015611165573d6000803e3d6000fd5b606061083784846000858561249a8561252f565b6124b65760405162461bcd60e51b815260040161025c90612e61565b600080866001600160a01b031685876040516124d29190612a42565b60006040518083038185875af1925050503d806000811461250f576040519150601f19603f3d011682016040523d82523d6000602084013e612514565b606091505b5091509150612524828286612535565b979650505050505050565b3b151590565b60608315612544575081611075565b8251156125545782518084602001fd5b8160405162461bcd60e51b815260040161025c9190612bc3565b82805461257a90613139565b90600052602060002090601f01602090048101928261259c57600085556125e2565b82601f106125b557805160ff19168380011785556125e2565b828001600101855582156125e2579182015b828111156125e25782518255916020019190600101906125c7565b506125ee9291506125f2565b5090565b5b808211156125ee57600081556001016125f3565b80356107fe816131d0565b803563ffffffff19811681146107fe57600080fd5b600082601f830112612637578081fd5b813567ffffffffffffffff80821115612652576126526131a5565b604051601f8301601f191681016020018281118282101715612676576126766131a5565b60405282815284830160200186101561268d578384fd5b82602086016020830137918201602001929092529392505050565b600060c082840312156126b9578081fd5b60405160c0810167ffffffffffffffff82821081831117156126dd576126dd6131a5565b816040528293508435835260208501356020840152604085013560408401526060850135606084015261271260808601612607565b608084015260a085013591508082111561272b57600080fd5b5061273885828601612627565b60a0830152505092915050565b600060208284031215612756578081fd5b8135611075816131bb565b600060208284031215612772578081fd5b8151611075816131d0565b60006020828403121561278e578081fd5b6107c982612612565b600080604083850312156127a9578081fd5b6127b283612612565b946020939093013593505050565b600080600080608085870312156127d5578182fd5b6127de85612612565b966020860135965060408601359560600135945092505050565b60008060006060848603121561280c578283fd5b8335612817816131bb565b92506020840135612827816131bb565b929592945050506040919091013590565b600060208284031215612849578081fd5b813567ffffffffffffffff81111561285f578182fd5b610837848285016126a8565b60006020828403121561287c578081fd5b5035919050565b60008060008060808587031215612898578384fd5b843593506128a860208601612612565b93969395505050506040820135916060013590565b600080604083850312156128cf578182fd5b82359150602083013567ffffffffffffffff8111156128ec578182fd5b6128f8858286016126a8565b9150509250929050565b60008060408385031215612914578182fd5b50508035926020909101359150565b6001600160a01b03169052565b6000815180845261294881602086016020860161310d565b601f01601f19169290920160200192915050565b60008154835260018083015460208181870152600285015460408701526003850154606087015260ff6004860154161515608087015260058501915060c060a087015283825485600282049050858216806129b857607f821691505b8482108114156129d657634e487b7160e01b88526022600452602488fd5b6129e38260c08c01612ba5565b8180156129f75760018114612a0857612a32565b60ff19851682528682019550612a32565b612a1188613087565b8a5b85811015612a2c57815484820152908a01908801612a13565b83019650505b50939a9950505050505050505050565b60008251612a5481846020870161310d565b9190910192915050565b6001600160a01b0391909116815260200190565b6001600160a01b039384168152919092166020820152604081019190915260600190565b600061010060018060a01b03808c168452808b166020850152508860408401528760608401528660808401528560a08401528460c08401528060e0840152835181840152506020830151610120830152604083015161014083015260608301516101608301526080830151151561018083015260a083015160c06101a0840152612b246101c0840182612930565b9b9a5050505050505050505050565b6001600160a01b03929092168252602082015260400190565b901515815260200190565b6001600160f01b031991909116815260200190565b6001600160f01b0319958616815293909416602084015263ffffffff199190911660408301526060820152608081019190915260a00190565b90815260200190565b6001600160e01b031991909116815260200190565b6000602082526107c96020830184612930565b6020808252601e908201527f486f7374696e675061796d656e743a20496e76616c6964206c6576656c2e0000604082015260600190565b6020808252602b908201527f486f7374696e675061796d656e743a20746f74616c2065787069726174696f6e60408201526a103a37b7903630b933b29760a91b606082015260800190565b60208082526026908201527f4f776e61626c653a206e6577206f776e657220697320746865207a65726f206160408201526564647265737360d01b606082015260800190565b60208082526024908201527f486f7374696e675061796d656e743a20496e76616c696420636f6d626f206c656040820152633b32b61760e11b606082015260800190565b60208082526025908201527f486f7374696e675061796d656e743a2065787069726174696f6e20746f6f207360408201526436b0b6361760d91b606082015260800190565b6020808252601e908201527f4c6f636b61626c653a206f7065726174696f6e206973206c6f636b65642e0000604082015260600190565b60208082526028908201527f486f7374696e675061796d656e743a20746f6b656e496e646578206f7574206f60408201526733103930b733b29760c11b606082015260800190565b60208082526024908201527f486f7374696e675061796d656e743a2063616e206e6f7420726563656976652060408201526332ba341760e11b606082015260800190565b6020808252818101527f4f776e61626c653a2063616c6c6572206973206e6f7420746865206f776e6572604082015260600190565b60208082526022908201527f486f7374696e675061796d656e743a2063616e206e6f742062757920636f6d62604082015261379760f11b606082015260800190565b6020808252601d908201527f416464726573733a2063616c6c20746f206e6f6e2d636f6e7472616374000000604082015260600190565b6020808252818101527f486f7374696e675061796d656e743a2063616e206e6f7420757067726164652e604082015260600190565b6020808252601e908201527f486f7374696e675061796d656e743a20496e76616c696420636f6d626f2e0000604082015260600190565b6020808252602a908201527f5361666545524332303a204552433230206f7065726174696f6e20646964206e6040820152691bdd081cdd58d8d9595960b21b606082015260800190565b60208082526022908201527f486f7374696e675061796d656e743a2063616e6f742072656e657720636f6d62604082015261379760f11b606082015260800190565b6020808252601e908201527f486f7374696e675061796d656e743a20496e76616c6964206e6f6e63652e0000604082015260600190565b600060208252612fe360208301612fde8554613101565b612923565b612ff06001840154613101565b612ffd6040840182612923565b506002830154606083015260038301546080830152600483015460a0830152600583015460c0830152600683015460e0830152610100808301526107c961012083016007850161295c565b6000878252866020830152856040830152846060830152831515608083015260c060a083015261307b60c0830184612930565b98975050505050505050565b60009081526020902090565b600082198211156130a6576130a661318f565b500190565b6000826130c657634e487b7160e01b81526012600452602481fd5b500490565b60008160001904831182151516156130e5576130e561318f565b500290565b6000828210156130fc576130fc61318f565b500390565b6001600160a01b031690565b60005b83811015613128578181015183820152602001613110565b838111156117df5750506000910152565b60028104600182168061314d57607f821691505b6020821081141561316e57634e487b7160e01b600052602260045260246000fd5b50919050565b60006000198214156131885761318861318f565b5060010190565b634e487b7160e01b600052601160045260246000fd5b634e487b7160e01b600052604160045260246000fd5b6001600160a01b038116811461167357600080fd5b801515811461167357600080fdfea26469706673582212208bdaf88e65c33d68714f5cc6902678280732f0bcf296bdf1d4b8a124c4f4f14564736f6c63430008000033405787fa12a823e0f2b7631cc41b3ba8828b3321ca811111fa75cd3aa3bb5ace405787fa12a823e0f2b7631cc41b3ba8828b3321ca811111fa75cd3aa3bb5acf405787fa12a823e0f2b7631cc41b3ba8828b3321ca811111fa75cd3aa3bb5ad0405787fa12a823e0f2b7631cc41b3ba8828b3321ca811111fa75cd3aa3bb5ad1405787fa12a823e0f2b7631cc41b3ba8828b3321ca811111fa75cd3aa3bb5ad2405787fa12a823e0f2b7631cc41b3ba8828b3321ca811111fa75cd3aa3bb5ad3"
}